:1000000000000120BD020000E5020000E702000040
:10001000E9020000EB020000ED0200000000000019
:10002000000000000000000000000000EF020000DF
:10003000F102000000000000F3020000F5020000E1
:1000400051630000F5840000BD630000F70200006A
:10005000F7020000F7020000F7020000F7020000BC
:10006000B9650000F7020000F7020000F702000087
:10007000F7020000F7020000F7020000F70200009C
:10008000F7020000E51D0000F7020000F702000083
:10009000F7020000F7020000F7020000F70200007C
:1000A000F7020000F7020000F7020000F70200006C
:1000B000F7020000F702000000000000000000004E
:1000C000F7020000F7020000F7020000F70200004C
:1000D000F7020000F7020000F70200000000000035
:1000E0000000000000000000000000000000000010
:1000F0000000000000000000000000000000000000
:1001000000000000000000000000000000000000EF
:1001100000000000000000000000000000000000DF
:1001200000000000000000000000000000000000CF
:1001300000000000000000000000000000000000BF
:1001400000000000000000000000000000000000AF
:10015000000000000000000000000000000000009F
:10016000000000000000000000000000000000008F
:10017000000000000000000000000000000000007F
:10018000000000000000000000000000000000006F
:10019000000000000000000000000000000000005F
:1001A000000000000000000000000000000000004F
:1001B000000000000000000000000000000000003F
:1001C000000000000000000000000000000000002F
:1001D000000000000000000000000000000000001F
:1001E000000000000000000000000000000000000F
:1001F00000000000000000000000000000000000FF
:1002000010B5054C237833B9044B13B10448AFF350
:1002100000800123237010BDF001002000000000C9
:1002200078B0000008B5034B1BB103490348AFF396
:10023000008008BD00000000F401002078B000003C
:10024000A3F5803A704700BF174B002B08BF134B34
:100250009D46FFF7F5FF00218B460F461348144AD1
:10026000121A08F0F9FB0E4B002B00D098470D4BEB
:10027000002B00D098470020002104000D000D48FD
:10028000002802D00C48AFF3008008F099FB200052
:10029000290007F059F808F07FFB00BF00000800B4
:1002A000000000000000000000000120F00100201C
:1002B0001C0F002000000000000000000649074A53
:1002C000074B9B1A03DD043BC858D050FBDC08F0F9
:1002D000A1F9FFF7B9FF000030B2000000000020D4
:1002E000F0010020FEE7FEE7FEE7FEE7FEE7FEE79F
:1002F000FEE7FEE7FEE7FEE7F0B595B000241D46F9
:100300000E460846174605F08FFB30462346082266
:10031000099505A91A9D08970D950A948DF82C400A
:100320000C9405F0E5FB9DF814308DF81140DDE9E3
:10033000061003F00302012ACDE9020128D0022AA7
:1003400004D0304605F074FB15B0F0BDBDF8165072
:10035000C3F3C2038DF81030C5F389150827082DA3
:100360002C4628BF08243B4622460EA9304605F0FD
:10037000BFFB2D1B214608AB02AA0EA8274401F0A3
:100380008FF8002DEBD1304605F052FB15B0F0BDD3
:10039000BDF81470059DC7F38312C3F3C2040EA900
:1003A0003046920008238DF81040C7F3831705F0FC
:1003B0009FFBC5F3952508AB3A4628460EA9009346
:1003C00002AB00F0F5FF304605F032FB15B0F0BD92
:1003D000704700BF00B583B0044B0093044A40232C
:1003E000FFF78AFF03B05DF804FB00BFF5030000D0
:1003F0001002002038B50E480E4D03780E4CEB5C11
:1004000000252570D2B253B1043006F087FE58B9EA
:100410000A4B1B7813B12378002BFCD038BD0C306D
:1004200006F018FB0028F3D001F0B8F8F0E700BFA1
:1004300000000020180F0020500200200C020020B5
:100440002DE9704319481A4A0378D35C88B02BB35E
:10045000043006F0C3FD174D0FCD6C460FC495E870
:100460000F004FF0EB7684E80F004FF006084FF0D6
:10047000FF394FF0FF344FF0FF350C48069600224D
:100480006946CDE90089CDE9024505F0D3FE48B9BA
:10049000094B00221A7008B0BDE870830C3006F0DA
:1004A0006BFAD8E701F07AF8F2E700BF000000200D
:1004B000180F0020188F00000C020020064B8B60E4
:1004C00004284FF00003CB604B609CBF034B53F8F4
:1004D00020300B60704700BFE093000004940000E0
:1004E000C368DB6800225A71704700BFC368DB68CD
:1004F00001225A71704700BF30B40E4B0E4D0F4CA5
:10050000ED1A00222D09C1E90242C1E900220BD0F7
:1005100003EB0515DC682479FF2C02D0904205D04E
:1005200001321033AB42F5D130BC70479B680B6091
:1005300030BC7047D0B10000F0B10000189400004A
:100540000129034604D08168D1F86411890704D5D4
:1005500000221846114604F083BB00B583B05368EF
:100560000193054913680091044A022102F0DCFF5F
:1005700003B05DF804FB00BF648F0000588F0000DB
:100580008368D3F864319B0733D42DE9F0471B4CC3
:100590001B4E361B360982B028D0DFF86CA0DFF87E
:1005A0006C90DFF86C80074604EB06160DE05D7971
:1005B000A368CDF804C0002D14BF55464D460095E4
:1005C000103402F0B1FFA64210D0E36893F804C0E3
:1005D000BCF1FF0F42464FF008013846E7D1A3684F
:1005E000084A103402F0A0FFA642EED102B0BDE8E6
:1005F000F0870022114604F033BB00BFD0B10000E9
:10060000F0B10000888F0000C4A600007C8F0000BD
:10061000A88F00008368D3F864319B0703D4044A91
:10062000022102F081BF0022114604F019BB00BF75
:10063000CC8F00008368D3F864319B0703D4044A4D
:10064000022102F071BF0022114604F009BB00BF75
:10065000CC8F00002DE9F0411049114D52F8047C77
:10066000491B0909064610D005EB011402E01035BC
:10067000A5420AD0A968384608F080FB0028F6D1C8
:10068000EB6801225A71BDE8F0813B463046054ACD
:10069000BDE8F041022102F047BF00BFF0B1000009
:1006A000D0B10000E08F00002DE9F0410F49104D5E
:1006B00052F8047C491B090906460FD005EB0114CA
:1006C00002E01035A54209D0A968384608F056FB6B
:1006D0000028F6D1EB685871BDE8F0813B46304602
:1006E000044ABDE8F041022102F01EBFF0B1000053
:1006F000D0B10000E08F000070B40E4A0E4C0F4DD8
:10070000121B0023D208C1E902534B600AD00C4EE1
:1007100002E001339A4208D036F82350A842F8D1BB
:1007200054F833200A6070BC7047002270BC0A6025
:10073000704700BFD0B1000050B10000E09300004E
:100740006C0100202DE9F04FCB683F4DDFF824818C
:100750005B79A5EB080585B08B46ED080746002BB5
:100760006DD03A4A3A4B0821384602F0DDFE394A4C
:100770000821384602F0D8FE85B3374EDFF8F8A0DE
:100780004FEA850900240023F25AA2423CD00433E8
:100790009945F9D1D646002336F82320A24243D00A
:1007A00001339D42F8D1002211465046002336F80D
:1007B00023C0A44515D001339D42F8D191424FF09A
:1007C000000312D9254A0292CDE900E0244A0134FF
:1007D0000821384602F0A8FEA542D4D105B0BDE8F4
:1007E000F08F914258F83330ECD81E4A0292CDE98E
:1007F00000E01B4A01340821384602F095FEAC4265
:10080000C1D105B0BDE8F08FDBF80C201649127994
:10081000595802EB4202072393400B40D340DBB20E
:10082000124A52F823E0B6E708EBC30399790F4B5D
:1008300003290A4628BF032253F82200B6E70C4AD0
:10084000022102F071FE8CE7D0B100002090000080
:1008500014900000409000006C010020989000006F
:1008600080900000C88F0000AC010020F0930000D1
:100870000090000050B10000F88F000013460A46B7
:10088000C168FFF75FBF00BF2DE9F047124D134C61
:1008900052F8049C641B2409074615D01646884666
:1008A00005EB041402E01035A5420DD0A9684846B6
:1008B00008F064FA0028F6D1334642462946384605
:1008C000BDE8F047FFF73EBF4B463846044ABDE857
:1008D000F047022102F028BED0B10000F0B10000C4
:1008E000E08F000002B970472DE9F04F1D46CB683C
:1008F0007E4993F804B085B006461746286807225B
:1009000008F056FA00286DD1012F00F0E380DFF8DF
:100910000482044658F8041B68680A2208F048FA62
:1009200058B10134052CF5D16B68714A304602216B
:1009300005B0BDE8F04F02F0F7BDE3B2022F01931E
:1009400040F0C5806B4D6C4BA3EB05095FEAD909FC
:1009500045D00BEB4B0B072304FA0BF403FA0BFB0C
:10096000CDF808B0654FDFF8A081DFF8ACA1DDF865
:1009700004B005EBC90909E02B68083502F0D4FD85
:10098000A94507F1040708F1040828D0AB795B45B5
:1009900052464FF002013046EED33A68029982EA9D
:1009A00004030B405340C3F3C202C3F382118A42D3
:1009B00038BF0A4603F007018A4238BF0A46C3F32C
:1009C00042218A4205F1080538BF0A46A9453B6025
:1009D000A8F8022007F1040708F10408D6D105B0F1
:1009E000BDE8F08F46492868082208F0E1F904467E
:1009F000002877D1012F0190A4D04FF0010ABA4509
:100A0000EDD22B1FDFF8EC803B49DFF80C910BEBAC
:100A10004B0B0AF1804A03EB8707072304FA0BF21A
:100A20000AF1FF3AA1EB080103FA0BF305EB8A0A7E
:100A300003920293CC085AF8045F0CB34FF0000BFA
:100A400003E00BF1010B5C4518D0202258F83B0065
:100A5000294608F0ADF908EBCB020028F1D19179D5
:100A6000019B994213D2136802214A46304602F094
:100A70005BFD5745DFD105B0BDE8F08FDAF80050D7
:100A8000204A2B460221304602F04EFDF1E71B4B77
:100A9000039A53F82B10029D1B484A402A404A40B3
:100AA000C2F3C201C2F3821C614538BF614602F045
:100AB000070C614538BF6146C2F3422C00EB8B0046
:100AC000614538BF614643F82B204180D1E74FF0A4
:100AD000020A94E70D4A3046022105B0BDE8F04F06
:100AE00002F022BD2B680A4A20E700BF9C9000005C
:100AF0001491000050B10000D0B10000AC01002002
:100B0000BC900000009100006C010020A490000047
:100B1000C4900000F0930000DC90000013460A46E9
:100B2000C168FFF7DFBE00BF2DE9F047124D134C3F
:100B300052F8049C641B2409074615D016468846C3
:100B400005EB041402E01035A5420DD0A968484613
:100B500008F014F90028F6D13346424629463846B3
:100B6000BDE8F047FFF7BEBE4B463846044ABDE835
:100B7000F047022102F0D8BCD0B10000F0B1000073
:100B8000E08F00002DE9F84F1F4B204800221A701B
:100B900004F0E0FE824610B15046BDE8F88FDFF861
:100BA00080801B4E1B48A6EB080605F02FF9F608BF
:100BB000F2D0DFF868B0554600273C4608EBC5097F
:100BC000A5424FF0140208D058F83410D9F80000AC
:100BD00008F0EEF80028C8BF01370134A642EFD173
:100BE0002BF825700135AE42E6D10B4B0B4A03EBD7
:100BF0008606002143F8041BB342518002F104022F
:100C0000F8D15046BDE8F88F24030020F0B1000071
:100C1000D0B10000D4930000AC0100206C01002092
:100C200050B1000099B10E4B0E495B1ADB0815D08C
:100C300030B400220C4D02E0013293420BD035F863
:100C400022408442F8D151F8320030BC7047054947
:100C500051F830007047002030BC7047184670478C
:100C6000D0B1000050B100006C010020094B0139E7
:100C700003EBC00003290BD8DFE801F004020806EB
:100C80000420704702207047407970470079704710
:100C90000020704750B100002DE9F047974CD4E98F
:100CA00001239A4284B064D00023C4F81834BFF3FF
:100CB0004F8FA568EAB2D31C04EB830114F82330EC
:100CC000580718D566680B7803F00303012B46D04C
:100CD000022B03D14B88023505EB9315EAB2D4F809
:100CE0001804D31C04EB830128B9AE423DD914F893
:100CF00023305B07E7D404EB82026B1CD2680192BD
:100D0000DBB204EB830302F00302DB680293022AE6
:100D100005F1020731D0012A00F0A580D4F8105463
:100D20003DB12B6828469B689847EB681D68002DED
:100D3000F7D1734B5B88012B09D97248724B734909
:100D4000C01AC008000440F0020000F0E7F8D4E93F
:100D50000130C01A18BF012004B0BDE8F0870B882D
:100D60000235C3F383131D44B8E7A66004B0BDE8A1
:100D7000F087002004B0BDE8F087BDF80630644875
:100D80009DF80460C3F389194D46502D28BF5025A6
:100D900065F38F1305F10801ADF8063004F0DCFDB2
:100DA000C6F3C20680460028B8D004F03DFE0023FA
:100DB00001A90822404604F067FEFB43DBB2013381
:100DC000B5EB830F4FEA830AF9B240F28980A5EBB5
:100DD0000A05033104EB8101082352464046EDB277
:100DE00004F052FE4B492A460AF10803404604F03B
:100DF0004BFE09F1030907EB9907D4F81834002BCF
:100E000077D1D4F8105405B3DFF80CA14FF00709DF
:100E1000EB685A79B2B11A79BDF8080002EB4201C9
:100E20005AF8200009FA01F2052E02EA000208BF72
:100E30000326CA40964205D82B6841461B682846BF
:100E40009847EB681D68002DE2D1404604F0F0FDA4
:100E5000002000F051FED4F8183403B9A760002038
:100E600000F052FE73E7BDF804602948C6F383130F
:100E7000062B28BF0623991C63F389168900ADF859
:100E8000046004F069FDC6F3C206804600283FF402
:100E900045AF04F0C9FD0023082201A9404604F033
:100EA000F3FDBDF8043013F4707FA6D06FF0010994
:100EB000A9EB05090825F9B203312B46042204EBFE
:100EC0008101404604F0E0FDBDF80430013709EB34
:100ED0000702C3F38313934205F10405EBD88CE7B3
:100EE00003312A4604EB81010823404604F0CCFD7F
:100EF0007FE7404604F09CFD29E700BF2403002063
:100F00008001002078B1000050B100003491000051
:100F1000F0B1000030030020AC0100202DE9F04FBB
:100F20005C4C87B0064600200F4600F0E5FDD4E992
:100F3000015303F580735B1B012B7DD804F21C4821
:100F400004F5836A04F214491AE0BDF80E30C3F3C5
:100F500089130333090C0BEB930B4846019101F005
:100F600047F80199002839D04046C4F808B001F08C
:100F700003F8D4E9013202F58072D21A012A5CD852
:100F80000121404600F0F8FF504601F021F84846A4
:100F900001F01EF8A368DAB2D11C04EB810014F84A
:100FA000211001F0040C490728D404EB8202591CDB
:100FB000D2680392C9B204EB810102F00302012A54
:100FC000C96803F1020B30D0022ABED00021484686
:100FD000019101F00DF801990028C5D14046C6E7FE
:100FE00043880EEB9313DAB2D11C04EB810014F8A2
:100FF000211001F0040CBCF1000FD6D0017801F0F3
:10100000030101290BD0022903F1020E02F10301B1
:10101000E6D004EB8100BCF1000FEFD1C5E70288F8
:101020000233C2F383121344DDE7BDF80C30C3F37F
:101030008313090C9B4490E72B46DAB20332023348
:101040000521002044F82210636000F05DFD0021BE
:10105000114800F067FF80F31000F1006B1C01F0F5
:101060003801DBB2EDB204EB830341F0010100046F
:10107000033540EA164641EA8727DE6044F82570CA
:1010800023781BB1FFF708FE0028FBD107B0BDE8AD
:10109000F08F00BF24030020400700202DE9F04F0F
:1010A000604C87B0064600200F46904600F024FDB5
:1010B000D4E9015303F580735B1B022B7FD804F244
:1010C0001C4904F5836B04F2144A1BE0BDF80E20A2
:1010D000C2F389120332090C03EB92035046CDE9A7
:1010E000003100F085FF019900283AD0009BA360F1
:1010F000484600F041FFD4E9013202F58072D21A6D
:10110000022A5DD80121484600F036FF584600F01B
:101110005FFF504600F05CFFA368DAB2D11C04EB1D
:10112000810014F8211001F0040C490729D404EBC4
:101130008202591CD2680392C9B204EB810102F009
:101140000302012AC96803F1020331D0022ABDD08B
:1011500000215046CDE9003100F04AFF01990028F6
:10116000C4D14846C5E743880EEB9313DAB2D11CCD
:1011700004EB810014F8211001F0040CBCF1000F05
:10118000D5D0017801F0030101290BD0022903F128
:10119000020E02F10301E6D004EB8100BCF1000F66
:1011A000EFD1C4E702880233C2F383121344DDE7B0
:1011B000BDF80C20C2F38312090C13448EE72B46B2
:1011C000DAB2033203334521002044F82210636071
:1011D00000F09AFCAB1CDBB204EB83030021124845
:1011E000C3F80C8000F09EFE80F31000F1006B1C31
:1011F00001F03801DBB2EDB204EB830341F04101B1
:101200000004033540EA164641EA8727DE6044F8C9
:10121000257023781BB1FFF73FFD0028FBD107B0F5
:10122000BDE8F08F24030020400700202DE9F043A3
:10123000304ED6F810440546002074B1234601E034
:101240001B6853B1DB681A798242F9D101300A2850
:10125000F3D14FF0FF30BDE8F083EB681871D6F89A
:101260001034002B41D0DA68EB6812681A60D6F8A7
:101270001034DB681D60204F204BFF1AFF08EAD0B6
:101280001F4CDFF8808003F1070C00224FF0070E9F
:10129000EE681CF8323096F8049026688B4209EB11
:1012A000490928BF0B4603FA09F373400EFA09F9FE
:1012B00003EA09037340C3F3C206C3F382194E4520
:1012C00038BF4E4603F007094E4538BF4E46C3F3BC
:1012D00042294E4538BF4E4628F822600132BA42B4
:1012E00044F8043BD4D1BDE8F083C6F81054EA6852
:1012F0001360C0E724030020D0B1000050B100000B
:10130000AC0100206E01002038B5084BD3F8104422
:1013100001251D704CB1E3685D71236820465B6850
:101320009847E3681C68002CF5D138BD24030020E1
:1013300030B5C38885B004460D461BBB217A05290C
:101340001ED0627A82B9134AA08852F821200392F3
:101350000021FFF767FC039A0F490346284605B0B2
:10136000BDE8304003F05ABFA088FFF77FFC0B4B6D
:101370000B4953F82020284603F050FF217AE2E77A
:1013800005B030BD074A00920749084A284603F0D5
:1013900045FFD3E7089600008C950000E495000017
:1013A0008895000080950000689500006095000019
:1013B0002DE9F04385B04FF0000C0C9C814694F869
:1013C0000C8084F80CC00E461746184621461D4670
:1013D000FFF7AEFF062F09D8DFE807F0042E343BF5
:1013E000444F1F004946204603F018FF2B7A052B77
:1013F00005D06B7A5BB92749204603F00FFF2046E2
:1014000003F000FF84F80C8005B0BDE8F083224AA9
:101410002249204603F002FFEDE7D6E90413F26803
:101420000393B3680291CDE900324946D6E900231F
:10143000204603F0F3FED9E732684946204603F020
:10144000EDFED3E7D6E900234946204603F0E6FE49
:10145000CCE7B3680093D6E900234946204603F061
:10146000DDFEC3E7D6E9023201920093D6E90023FC
:101470004946204603F0D2FEB8E7D6E90321B36817
:101480000291CDE900324946D6E90023204603F017
:10149000C5FEABE7A48F0000809500008895000092
:1014A000082900D970472DE9F04F9B4683B00024EE
:1014B0001B7B8BF80C400D4606465946104690465D
:1014C0000193DFF8D0902C4FFFF732FF05E0325D3B
:1014D000013403F0A3FE082C09D0A5423946584632
:1014E000F5D84946013403F099FE082CF5D123497B
:1014F000DFF8A490224C234F584603F08FFE4FF0A4
:10150000000A0DE0D15D11F0970F08BF2E22214691
:1015100058460AF1010A03F081FEBAF1080F10D013
:10152000554505D916F80A207E2AEBD92E22EEE77A
:10153000494658460AF1010A03F070FEBAF1080F55
:10154000EED198F80830052B02D098F8093063B92D
:101550000D49584603F062FE584603F053FE019BC6
:101560008BF80C3003B0BDE8F08F084A08495846A4
:1015700003F054FEECE700BF98950000A49500002E
:10158000A895000071AF0000A48F000080950000B6
:1015900088950000A09500009495000000B585B0E6
:1015A0000346002101AA44F20100CDE90111039391
:1015B00000F004F805B05DF804FB00BF70B572B62A
:1015C000FFF7A2FEFFF768FB0028FBD1184D6B88E0
:1015D000F3B9184B1B68DB070DD5174C174E00BE2F
:1015E0006B88012B07D9A01BC0080004144940F0E8
:1015F0000200FFF793FCBFF34F8F1249124BCA68EA
:1016000002F4E0621343CB60BFF34F8F00BFFDE7EE
:10161000094C0A4E0D49A01BC008000440F001000F
:10162000FFF77CFC034B1B68DA07D9D5D7E700BF6F
:1016300080010020F0ED00E078B1000050B1000022
:101640002896000000ED00E00400FA051C9600005A
:10165000D0E90223D1E90201994208BF90422CBF90
:1016600001200020704700BF2DE9F04F2DED028BC7
:1016700085B0064600F074FB40B1BA4AD2E90031A9
:1016800013F1807341F10001C2E9003100213046BD
:1016900000F082FBB44C68B123685BB1B34B2568A2
:1016A0001B782BB125B195F82030002B40F022811A
:1016B000002323600121304600F06EFB002840F03B
:1016C000FC80AB4803A900F0EDFB78B3A94DDFF82F
:1016D0009C82A74F0BE0002B00F0D18003A9384675
:1016E00000F010FC03A9384600F0DCFBF0B10378F1
:1016F000012B12D0022BEED128464FF0000904F046
:10170000DBFC30B180F82090284604F0D5FC00289E
:10171000F8D1012388F80030E0E741682368994256
:1017200000F0C080284604F0D1FCD7E7DFF84482FF
:10173000914FDFF8309208EE106A37E0404604F02F
:10174000BBFC05463846AB68EA680193009200F09E
:1017500033FB8A4E8446D9E90001D6E9002310EB19
:101760000C0041F10001994208BF9042DDE90023DD
:1017700003D210F1807041F10001B3EB000A62EB7B
:10178000010BBAF1010F7BF100032ADBBAF5350F2B
:101790006FD2AA684FF496030021384600F05AFA37
:1017A00000285ED00D2820D000232360404604F09E
:1017B00089FC002879D02368002BBFD02368D0E9AA
:1017C0000201D3E90223994208BF90424CD2236818
:1017D00093F82030002BB1D02168404604F058FC2B
:1017E000ACE70021384600F0CBFA604B1B78002BA9
:1017F000DAD095F82030002BD6D0384600F0DCFA4D
:101800008446D9E90001D6E9002310EB0C0041F130
:101810000001994208BF904203D210F1807041F15B
:101820000001D5E90223994208BF90425DD32B699C
:101830000BB985F82030D5E905309847296900298A
:10184000B2D095F82030002BAED0D5E90223521843
:1018500043F10003C5E902232946404604F018FC81
:10186000A2E72368CBB1256005B0BDEC028BBDE8D3
:10187000F08F384600F0A0FA414A02448AE74368F4
:1018800093F82020002A7FF429AF012283F820203A
:101890004168284604F0FCFB20E718EE100A00F02F
:1018A000ABF9E0E70023236018E72368002BDBD1C6
:1018B00018EE100A00F0A4F9D6E72F482F4D00F0DB
:1018C0007BFA284BD3E90089D5E9002318EB0008FF
:1018D00049F10009994508BF904503D218F1807875
:1018E00049F10009C5E90089EBE62946404604F0C4
:1018F000CFFB59E7204800F05FFA1A4A1F4BD2E9A4
:101900000089D3E9002318EB000849F10009994543
:1019100008BF904503D218F1807849F10009D5E954
:101920000223994508BF90452CD32B690BB985F844
:101930002030D5E905309847296900293FF4B8AE31
:1019400095F82030002B3FF4B3AED5E902235218AE
:1019500043F10003C5E902230648294604F098FB39
:10196000A6E600BFE007002050080020E80700209E
:101970001C0000205C960000300000204808002079
:10198000FFFFB4000248294604F082FB90E600BF46
:101990005C96000010B5134B13491B68134882B0C6
:1019A00058220193082300F027FA044610B120467C
:1019B00002B010BD0E4A0F4801A900F0AFF804466E
:1019C0000028F4D10B48012100F0C0F90123194689
:1019D000094A084800F018F9084B012220461A70FD
:1019E00002B010BD58960000EC0700201C0000203B
:1019F0006916000030000020FFFF7F00E80700208C
:101A00004AB1A1F101010368B1FA81F14909C3E9C1
:101A10000412002070470720704700BF90F8203064
:101A20000BB100207047F0B5826183B004461A48BC
:101A30000D4600F0C1F9194B1949D3E90023D1E94A
:101A40000067121843F10003BB4208BFB24203D241
:101A500012F1807243F100035219216943F100032E
:101A6000C4E9022301B125610E4801A900F0DCF9A7
:101A700048B100254460057001A90A4800F002FA47
:101A800020B903B0F0BD042003B0F0BD024800F05F
:101A900097F9284603B0F0BD30000020E007002091
:101AA000480800201C00002030B5002583B0044603
:101AB00080F8205001A90B4800F0B6F978B1012256
:101AC0004460027001A9074800F0DCF908B903B0CE
:101AD00030BD054800F074F9284603B030BD04203D
:101AE00003B030BD1C00002030000020014800F091
:101AF00063B900BF3000002072B6024A1368013398
:101B00001360704754080020034A1368013B1360B8
:101B100003B962B6704700BF5408002070B52D4B62
:101B200044792D4E03EBC40546F824202D79002D71
:101B30003DD102680C88C2F8084590F904208978E4
:101B4000002A20DB02F1604202F561424901C9B27C
:101B500082F8001390F90420002A07DB1F4C02F0E2
:101B60001F0501215209A94044F8221042791C495D
:101B700043F8320003EBC2034A880121022A19719B
:101B800009D8002070BD174C02F00F02490114441F
:101B9000C9B22176DEE7144B14481549C01AC008B3
:101BA000000440F00300FFF7B9F9002070BD0C4BB2
:101BB0005B88012B01D8082070BD0B4B0B480D49E9
:101BC000C01AC008000440F00200FFF7A7F908207F
:101BD00070BD00BF580800206008002000E100E050
:101BE00084010020FCEC00E050B1000080B1000056
:101BF0008C96000068960000036801221A60704706
:101C0000036801225A607047F0B404684FF48035CD
:101C10008D40C4F80853066801F15004C6F84853D3
:101C2000A4000668A4B20027375182B03659046870
:101C3000019601F5A87122F07F42019E44F821200F
:101C40000268C2F8445313B10368C3F8045302B0E6
:101C5000F0BC70472DE9F04704464FF48036006829
:101C60008E40C0F848632068C0F80863206800EB25
:101C700081058A46D0F80415D5F84005C5F8401509
:101C80000AF15005AD002768ADB24FF0000847F8E3
:101C9000058082B0401A7F59009720F07F400128CC
:101CA00022F07F479946009A41D02268D2F8045525
:101CB000C2F844637A1B22F07F42012A0AF5A87118
:101CC00025D0226842F821702068D0F804557A1B8C
:101CD000C9F1FF13013A03F57F4322F07F4293429B
:101CE00011D342B1C0F8446323680020C3F80463F1
:101CF00002B0BDE8F087013740F821702068D0F8C5
:101D000004359D42EED00D2002B0BDE8F08720687A
:101D10000D4B013740F8217043F001034FF4806010
:101D200098472068D0F804359D42DBD0EBE7064A9F
:101D30004FF4806042F001029047226842F805802B
:101D400052590192019AB0E7A0960000026802235E
:101D5000C2F8443311B10268C2F80433704700BFBF
:101D60000368D3F8040100B97047002282B0C3F8B9
:101D70000421D3F804310193019B012002B0704784
:101D800002684FF4803303FA01F1C2F84813036884
:101D9000C3F80813704700BF50318900036889B247
:101DA000585800B9704700225A5082B05B580193CE
:101DB000019B012002B070470368D3F80405704707
:101DC00090F90430002B09DB5A090548403203F032
:101DD0001F03012101FA03F340F82230704700BFCE
:101DE00000E100E0024A034B10681B68184700BF7F
:101DF000580800206008002099B110B4B2FBF3F439
:101E000003FB1424A4B244B9C0E9001484608281A5
:101E1000C38120465DF8044B704709205DF8044BF0
:101E200070470E20704700BF30B482B050E8013FC9
:101E30009DB2C48925448489A54228BF2D1B0489ED
:101E4000A54202BFBFF32F8F002207E0C5EA0305BA
:101E500040E80154002CE9D14FF001028DF8032035
:101E60000193019B9DF803200B602AB10B88006849
:101E7000184402B030BC704702F0FF03184602B0AD
:101E800030BC70470A884B889A4201D000207047C6
:101E900050E8012FC2EA024240E80123002BF7D1AB
:101EA0000120704730B482B050E8023F1FFAA3F51A
:101EB000C488A54202BFBFF32F8F00220DE0C48962
:101EC00025448489A54228BF2D1BC3EA054540E867
:101ED0000254002CE8D14FF001028DF80320019349
:101EE000019B9DF803200B602AB14B8800681844C1
:101EF00002B030BC704702F0FF03184602B030BC9D
:101F0000704700BF0A884B889A4201D00020704772
:101F100050E8022FC2EA224240E80223002BF7D108
:101F20000120704710B4034653E8000F0A4643E807
:101F3000002494F0000FF7D15DF8044B704700BF08
:101F400010B4034653E8002F42EA010043E80004BE
:101F500094F0000FF6D15DF8044B704710B40346BF
:101F600053E8002F02EA010043E8000494F0000F58
:101F7000F6D15DF8044B704710B4034653E8002FC8
:101F800002EB010043E8000494F0000FF6D15DF885
:101F9000044B704710B4034653E8002FA2EB010036
:101FA00043E8000494F0000FF6D15DF8044B70474D
:101FB00010B40346012253E8000F40EA020143E84F
:101FC000001494F0000FF6D15DF8044B704700BF89
:101FD00010B40346012253E8001F41EA020043E81F
:101FE000000494F0000FF6D15DF8044B704700BF79
:101FF00010B40346002253E8000F00EA020143E850
:10200000001494F0000FF6D15DF8044B704700BF48
:1020100010B40346002253E8001F01EA020043E81F
:10202000000494F0000FF6D15DF8044B704700BF38
:102030002DE9F0478368D3F86431C3F340059B076B
:1020400088B045D401293CD8254C264B264A1B1B79
:102050009F081B2BA2FB072730D9DFF894A0064668
:10206000A9464FF064082268D4F808C013791068B4
:1020700062680693ACEB000003EB8303ACEB020257
:10208000218B0792C0B203EB83030390049200916B
:1020900001359B00CDF80490B3FBF2F308FB00F090
:1020A0000593B0FBF2F06369029052460821304676
:1020B00001F03AFAAF4204F11C04D4D808B0BDE8EC
:1020C000F0870A4A022108B0BDE8F04701F02CBAB7
:1020D0000022114608B0BDE8F04702F0C1BD00BFC4
:1020E000F0B1000028B2000025499224A896000013
:1020F000BC960000B8B130B4D0E90112521A04689D
:10210000D2B2531E2160DBB242B101680A685C1E84
:10211000551C0D601370E3B2FF2BF6D1036800204D
:10212000187130BC70470E20704700BF38B50446A8
:102130000020FFF7E1FCD4E900311A688A4215D982
:10214000511E19602168A3680868258B12F8012CBC
:10215000E4681B1A0879DBB2984205FB024400D2FE
:102160000B710020FFF7D0FC204638BD0024002072
:10217000FFF7CAFC204638BD38B5054600200C469E
:10218000FFF7BAFC2A681368591C1160E9682A8BAA
:10219000641AB4FBF2F41C70BDE838400020FFF76D
:1021A000B3BC00BF30B18A68B2F8643143F0200399
:1021B000A2F86431704700BF10B543689C6860683E
:1021C000036801219B689847A36810B903221A701D
:1021D00010BD04221A7010BD0068096806F0CEBD5B
:1021E0002DE9F041054680684C4E82B000248022E3
:1021F0002146A0308DF8034006F02EFC286948499E
:1022000003F00CF8286902F0FDFF46F001064FF4D8
:102210007A78686803680DF103011F69012201AB38
:10222000B847019B611CC3B19DF80320AB681B2A12
:1022300005D093F8A0001B28EBD1522A1CD02344D0
:10224000CCB2092C83F8A020E3D9AB68002283F834
:10225000A020042002B0BDE8F0814FF6C010B047C6
:10226000019B002BD5D108F1FF371FFA87F8B8F191
:10227000000FCED10D20EDE71C44002084F8A00013
:10228000AF6897F8A1305B2B42D107F1A10602237A
:1022900002E0802B90B237D016F8014F00EB80029D
:1022A000A4F130013B2C01EB4202D9B203F101034E
:1022B000EFD101310A065FFA81FC25D40CF1A002AE
:1022C0003A44ACEB020C002102E099B233061BD475
:1022D00012F8014B01EB810304EB4303303B0CEBA1
:1022E0000206002CF1D1FA2928BFFA213975AB6812
:1022F000FA288ABFFA2298759A75AB68002083F88D
:10230000A00002B0BDE8F0810C2002B0BDE8F08171
:1023100087F8A0000B2002B0BDE8F081B09C00005F
:10232000989C0000F8B51E46D9B91A4C1A4B1B1BD5
:10233000B2EBD30F4FEAD3051DD2E5B1174F04EB33
:10234000C50507EB820702E00834AC4213D0616890
:102350003868096806F012FD0028F5D1636833601B
:10236000F8BD40B103784BB14368069910469847D1
:10237000069B1B685BB900233360F8BD43681101FD
:1023800003EB02125B58002BF5D03260F8BD069BC0
:102390003360F8BD7CB0000034B1000010010020B3
:1023A0002DE9F04707460023844E3B6082B0184673
:1023B000884614461D4605E0002304F8013B3868B2
:1023C0000B2864D82378002B61D0F35C13F008024B
:1023D000F2D1431C3B6048F820402378002B6CD09E
:1023E00015464DB1AB4235D05C2B637813D0013428
:1023F000002BE4D0002DF5D11D46272D37D12046E6
:1024000006F0CEFC611C0246204606F00BFB23784A
:10241000002BEFD1D3E7AB4200F08380302B4ED0BE
:102420001A46782AE3D1A278A2F130095FFA89F935
:10243000B9F1090F00F29680E278A2F13003DBB225
:10244000092B7ED843EA09195FFA89F903214FF075
:10245000040A51E0204606F0A3FC611C0246204617
:1024600006F0E0FA2578002DA9D0272DC7D05C2DE5
:1024700014D0222DC3D0002DECD0735D1B071CD4CB
:1024800014F8015F002DF0D138680B289AD9002389
:1024900048F82030284602B0BDE8F087204606F014
:1024A0007FFC04F1010902464946204606F0BAFACB
:1024B00065784C46002DD8D181E700257FE7A278CA
:1024C000A2F130095FFA89F9B9F1070FA9D8E378C9
:1024D000303BDBB2072B6DD82279303A43EAC90989
:1024E000D3B2072B4FFA89F936D843EAC9095FFA04
:1024F00089F904214FF0050A21442046019106F094
:102500004FFC0230A0EB0A020199204606F08AFA3D
:10251000224602F8019B63781446002B7FF46AAFD1
:102520004DE7204606F03CFC04F10109024649460D
:10253000204606F077FA63784C46002B7FF45AAFBA
:102540003DE7A2F16103052B2BD9A2F14103052B35
:1025500030D8373A42EA09195FFA89F903214FF076
:10256000040AC9E7A2F1610105290FD9A2F14101CD
:1025700005293FF63CAF373A5FFA82F9E278A2F1DB
:102580003003DBB2092B7FF65DAFDAE7573A5FFA2B
:1025900082F9E278A2F13003DBB2092B7FF652AF69
:1025A000CFE7573A42EA09195FFA89F903214FF058
:1025B000040AA1E702214FF0030A9DE771AF000072
:1025C0002DE9F04F804D0B78EB5C8BB013F00803D6
:1025D00002910746069200F0F4800B46C1F101011A
:1025E000C81813F8012FAA5C1607F9D48346069A77
:1025F000D3B205931346029A9B1A0793D946B8465D
:10260000029C204606F0CCFBD8F8083093F819C09D
:10261000069BA0EB0900ACEB030B584573D9079A56
:10262000CDF8049009F1FF33C4F101062344A6EB71
:10263000090AA2EB090E0AEB030406EB03095A7818
:10264000A95C013309070EEB030002D50A2A55D015
:10265000A3468445EFD8DDF80490029A09EB0B03FA
:102660000493D3185C460393D8F8100002F0CAFD17
:102670002CB34FF0000B09ABCA46D8F804000299FE
:1026800002680193D76851442246B8470999019BD3
:1026900029B1641A8B4412D009EB0B0AEDE7D8F884
:1026A000082011780329E8D0D2F864118906FBD5F7
:1026B000B2F864116FF34511A2F86411DDE7039BD2
:1026C0001B78EB5C18076AD5049B029A13441C46DE
:1026D00006EB040914F8013FEB5C1B07F8D43B49F7
:1026E000D8F8100002F09AFD059B002B88D03849DD
:1026F000D8F810001A4602F091FD81E7CDE90339C0
:10270000DDF80490B0E74946CB464746002839D06B
:10271000029A09F1FF3313444FF0000903E009F175
:10272000010948452ED013F8012F0A2A01EB0904AC
:10273000F5D1386902F066FDB9F1000F15D04FF000
:1027400000080DF1240A5E46786802990268314457
:10275000D56853464A46A847099919B3B9EB010908
:10276000884402D00BEB0806EEE7631C1749386972
:102770009B4602F053FD059B23B1154938691A4663
:1027800002F04CFD029B38695B44194602F046FD9D
:1027900038690E4902F042FD0BB0BDE8F08FDDF85C
:1027A00010909CE7B8680378032BCDD0D0F8643143
:1027B0009D06FBD5B0F864316FF34513A0F8643182
:1027C000C2E79B4613E700BF71AF000048970000C7
:1027D000D09700000CB470B584B008AB816853F892
:1027E000045B0193D1F864315B07044601D5CB7ECD
:1027F0004BB92069294601AA02F0C6FD04B0BDE824
:10280000704002B070471B310222684606F0FCF8A7
:10281000A368294A29490026DE76206902F0FEFCD9
:1028200001AA2069294602F0AFFD9DF80030A26898
:10283000002B35D0D17E994211D02149029103F16C
:102840002F006D2133258DF80D00ADF80E108DF899
:102850000C50D3762069194902AA02F0DFFC9DF8DA
:102860000130002BCAD0A268117F9942C6D045F62C
:102870001B3103F12F00ADF8081034256D218DF8C0
:102880000B00ADF80C108DF80A50137720690B4936
:1028900002AA02F0C3FC04B0BDE8704002B0704769
:1028A000D3762069044A054902F0B8FC9DF801304E
:1028B000002BA3D0D7E700BF789C000088950000CC
:1028C0001B5B313B0CB430B585B008AB816853F865
:1028D000045B0193D1F864315B07044602D5CB7EDB
:1028E000082B09D12069294601AA02F04DFD05B047
:1028F000BDE8304002B0704702221B31684606F046
:1029000083F8A368DA7E082A0AD02B4A2B49029260
:1029100008220391DA76206929496A4402F07EFC94
:1029200001AA2069294602F02FFD9DF80030A26817
:10293000002B35D0D17E994211D01F49029103F16D
:102940002F006D2133258DF80D00ADF80E108DF898
:102950000C50D37620691A4902AA02F05FFC9DF858
:102960000130002BC3D0A268117F9942BFD045F639
:102970001B3103F12F00ADF8081034256D218DF8BF
:102980000B00ADF80C108DF80A50137720690C4934
:1029900002AA02F043FC05B0BDE8304002B0704727
:1029A000D3762069074A064902F038FC9DF80130C9
:1029B000002B9CD0D7E700BF1B5B313B33376D004A
:1029C00088950000789C00002DE9F047074686B006
:1029D000504806F0E5F905464F4806F0E1F9BB68B6
:1029E0004E495B684E4A00912D1A08213846FFF780
:1029F00069FFBB685868ADB2002800F0888006F017
:102A0000CFF984B2454806F0CBF9BB6899682044F9
:102A100082B211B13846FFF7D3FD424A0021384651
:102A2000FFF7D8FE3C4806F0BBF9841C2C44394B18
:102A30003D4A0093A4B2234608213846FFF742FFDF
:102A4000E21C3A4992B23846FFF7BAFDBB68DE682D
:102A5000002E52D00024254620463278013423012E
:102A600002A9103B8AB173689847029898B10DF19A
:102A7000080806F095F9A842EED9D8F80000002819
:102A80003ED006F08DF985B2E6E77268D05802EBC9
:102A900003080028EDD1012C2FD0254ADFF888A0AB
:102AA0000021384605F10209FFF794FE1FFA89F963
:102AB0004FF0000814E073689847029BEBB102AC3A
:102AC00008210093524638464B46FFF7FBFE6168EB
:102AD0006A1D92B23846A9B1FFF772FD08F10108EC
:102AE00033784FEA081202A94046002BE3D17468FC
:102AF000A35804EB0814002BE2D106B0BDE8F08720
:102B00000546A9E70B49386902F088FBE6E7044669
:102B100078E700BFB89C0000289E0000A09C000041
:102B2000B8990000D8970000E4970000EC970000E7
:102B30000098000048970000022910B5044604D10F
:102B40008368D3F864319B070BD42069074A08498E
:102B500002F064FB2069074A0549BDE8104002F015
:102B60005DBBBDE81040FFF72FBF00BF809C000099
:102B700088950000849C0000F8B504460068A568AC
:102B800000283DD006F00CF9C6B23046AA7FE97F96
:102B90006B7EAE7601441044B1FBF3F7B0FBF3F269
:102BA00003FB171103FB1203C9B2DBB2D6B2FFB2AB
:102BB000481C5A1C07F1010E06F1010CC0B2D2B23A
:102BC0005FFA8EFE5FFA8CFC994228756A7585F86B
:102BD00016E085F817C015D0E64517D390421FD8E8
:102BE000121A12F0FF0203D1A3689A7FDA77F8BDB8
:102BF0001049206902F012FBA3689A7FDA77F6E7A2
:102C00000646C3E7B742F2D0E645E7D2F21B206999
:102C10000949D2B202F002FB287D6A7D9042DFD9D9
:102C2000821AD2B20549206902F0F8FAA3689A7FA5
:102C3000DA77DCE7D09700001098000018980000C1
:102C4000F8B504460068A568002841D006F0A8F849
:102C5000C7B23A4610460137EB7F697EAE7FAA764F
:102C60000344B3FBF1FC01FB1C3330440133DBB202
:102C7000B0FBF1FE0CF1010601FB1E01F6B20131C1
:102C80000EF1010EBB422B75AE75697585F817E024
:102C900021D0012E07D95FFA8CF21349206902F086
:102CA000BDFA2B7DAA7E934208D80132D21A12F0C7
:102CB000FF0213D1A3680022DA77F8BD013B9A1A0C
:102CC00012F0FF02F6D00949206902F0A7FAF1E7F5
:102CD00002460127C0E7012EDBD1F8BD0449206977
:102CE00002F09CFAE6E700BF209800001898000068
:102CF000D097000070B586B0002300220026CDE9F1
:102D00000223044683688DF8106000295AD1D3F855
:102D10006031002B54D00D46FFF792FFA26802A944
:102D2000D2F8600101912B46092202F0E1FEA3686E
:102D3000039AC3F86021A3680199D3F860019D7FCD
:102D4000002800F081800023092202F0D1FEA16852
:102D50009DF81020D1F8600109232031013202F0E2
:102D6000C7FE9DF81030A268D377A268AB42937774
:102D700050D3A368454A204620330821FFF7A2FD1F
:102D8000A2682068D57F00283BD006F009F8A26829
:102D9000537E2844B0FBF3F503FB150060B12068B7
:102DA000957F20B105F0FCFFA3685B7E0544B5FB71
:102DB000F3F203FB12531BB92069354902F02EFAD6
:102DC00006B070BDD3E957219142F9D0D3F85831FC
:102DD000002BF5D0FFF734FFA368D3F86001F8B1FA
:102DE00002A933460922019102F082FEA368029AE9
:102DF000C3F86021A3689DF81050D3F860010199D1
:102E0000A1E7537EB5FBF3F003FB1055002DD3D0A3
:102E1000957FCCE71F4A1D49206902F0FFF9A8E71A
:102E200003F1200005F0BCFFA36810F0FF05D3F804
:102E30005821C3F860211ED1A36883F8A050A3686D
:102E400002A9D3F860017EE703F1A00005F0A8FF16
:102E500050B9A36883F82000A068203005F0A0FFD7
:102E6000C3B28DF810307EE7A06800F1A0012030D9
:102E700005F08EFFF0E7A06800F12001A03005F01A
:102E800087FFA36802A9D3F860015CE7889500007A
:102E9000489700006C9C00002DE9F0410546006851
:102EA000AC6800286AD005F07BFFC6B23046A17F2F
:102EB000E27F637EA67602440844B2FBF3F6B0FBE1
:102EC000F3F703FB162203FB1703F6B2FFB201323E
:102ED000701C0133791C2275A0756375E175AA68B1
:102EE000286892F81F8000283ED005F059FFAA6894
:102EF000537E4044B0FBF3F803FB180068B1286828
:102F000092F81E8020B105F04BFFAB685B7E8044D9
:102F1000B8FBF3F203FB12831BB91F49286902F0C7
:102F20007DF9BE422CD0E27DA37DD21A12F0FF02C1
:102F300011D1237D627D934205D8D21A12F0FF028F
:102F400024D1BDE8F0819A1A28691449BDE8F041FE
:102F5000D2B202F063B91249286902F05FF9237D09
:102F6000627D9342E9D9EEE7537EB8FBF3F003FBB1
:102F700010800028D1D092F81E80C9E7064696E757
:102F8000627D237DD21A12F0FF02DAD0286905494A
:102F9000BDE8F04102F042B948970000D097000028
:102FA0002098000018980000F8B5D0F808C09CF8E8
:102FB0001E3015469A187F2A00DC05B9F8BD0F4669
:102FC0009CF81F1004465B1A4819DEB220302031ED
:102FD00061446044721C05F025FDA068C37F203366
:102FE0002A463946184405F01DFDA068203005F03A
:102FF000D7FEA3681E4A9877A168CB7F20330B4485
:1030000020460821FFF75EFCA368DA7F1544DD77D0
:10301000A2682068D57F08B305F0C2FEA268537E7F
:103020002844B0FBF3F503FB150060B12068957FE1
:1030300020B105F0B5FEA3685B7E0544B5FBF3F255
:1030400003FB12531BB90B49206902F0E7F8002E6D
:10305000B4D02046BDE8F840FFF71EBF537EB5FB55
:10306000F3F103FB1155002DEDD0957FE6E700BF8E
:103070008895000048970000F8B5836804469A7F59
:10308000D87F121A12F0FF0500D1F8BD00F121011E
:103090002030194418442A4605F0C4FCA268937FE6
:1030A000013B93772068A668002838D005F078FEA9
:1030B000C7B23846F27F737EB17FB77602440844C8
:1030C000B2FBF3F703FB1722B0FBF3F1FFB203FBF4
:1030D00011030132C9B20133781C32758F4201F1FC
:1030E0000102B0757375F2751BD02069194A1A492F
:1030F00002F094F82069194A174902F08FF8A16884
:10310000154ACB7F20330B4420460821FFF7DAFB1A
:103110002069134A1049BDE8F84002F07FB807461D
:10312000C8E7A1680C4ACB7F20330B442046082116
:10313000FFF7C8FB0B4A0849206902F06FF86A1EC6
:1031400012F0FF02A1D020690749BDE8F84002F063
:1031500065B800BF709C0000889500006C9C000062
:10316000749C00007C9C0000189800002DE9F04140
:1031700083680446D3F8645193F81EC0D87FC5F322
:103180000008ACEB000615F001050F46F6B23BD186
:10319000BCF17E0F36D8002E40F0D780034483F870
:1031A0002010A268937F0133DBB2D118937781F8A6
:1031B0002060206982493A4602F030F8A268D37F45
:1031C0000133D377A5682068EE7F002865D005F02D
:1031D000E7FDA5686B7E3044B0FBF3F603FB1600F9
:1031E000002800F0AC802068AE7F00285DD005F09C
:1031F000D7FDA5686B7E3044B0FBF3F603FB1600E9
:10320000002863D0BDE8F081BCF17E0F55D9002EB7
:10321000F8D0034483F820102068A768002853D012
:1032200005F0BEFD5FFA80FC6046FA7F7B7EB97FC9
:1032300087F81AC002440844B2FBF3FC03FB1C22CB
:10324000B0FBF3F15FFA8CFC03FB11030132C9B24E
:1032500001330CF101003A758C4501F10102B8759A
:103260007B75FA7500F08C802069564A564901F04A
:10327000D5FFA168544ACB7F20330B442046082158
:10328000FFF720FB2069514A4F4901F0C7FF504921
:103290002069012201F0C2FF90E76B7EB6FBF3F0DC
:1032A00003FB1066002E4AD0AE7FB6FBF3F203FBA1
:1032B0001262002AA6D1104611E0034483F82010C0
:1032C000002E3FF46EAFA7E78446AEE720680028E3
:1032D00073D005F065FD6B7EAE7FC0B20246E97F1C
:1032E000A87616440A44B2FBF3F1481C03FB1122F2
:1032F000C0B2B6FBF3F103FB1166CBB2511C1A1A34
:103300000136013312F0FF022975A875EB756E7551
:103310004ED13049206901F081FFEA7DAB7DD21AA0
:1033200012F0FF023FD12A7D013A12F0FF023FF472
:1033300069AF20692649BDE8F04101F06FBF2069FF
:103340002449BDE8F04101F069BF00F120012130BE
:1033500019441844324605F065FBA368DA7F13442C
:1033600083F82070A268937F0133DBB2D118937782
:1033700081F820802068A76800287FF451AFA3E778
:10338000A168114ACB7F20330B4420460821751BCE
:10339000FFF798FA15F0FF023FF410AF0E492069CD
:1033A00001F03CFF0AE70D49206901F037FFBAE759
:1033B0000B49206901F032FFABE7AE7F02468EE792
:1033C000A8950000709C000088950000749C000087
:1033D000D09700004897000018980000209800003F
:1033E000109800002DE9F0410446C0689DF818705F
:1033F000406884606068056890462D682F4A1E46C4
:103400002346A847054610B12846BDE8F08160690B
:1034100002F0A0FA05460028F6D1A368C3F85801C7
:10342000A368C3F85C014FF4B4722946A06805F0A4
:1034300013FBA2682248B2F86431224943F020030A
:10344000A2F86431A368B3F8642168F38202A3F898
:103450006421A268B2F8643143F00803A2F8643131
:10346000A36801221A70A36850225A76A368091A29
:103470001822C9081A760FD0134A02EB810C436850
:103480001B6842F8043B944500F10800F7D10F4B4C
:103490000D48042205F021FB002EB5D0E068394626
:1034A000FDF7C4FE002806DBE368DB6801225A71E1
:1034B0002846BDE8F0810425A6E700BFA52100004D
:1034C0007CB0000034B1000010010020D9210000C0
:1034D0004AB32DE9F043054683B00E461446002753
:1034E0008846686803682246D3F80C90414601ABD1
:1034F000C847019B2BB1E41A1F4411D006EB070803
:10350000EFE7AB681A78032AEBD0D3F86421920670
:10351000FBD5B3F864216FF34512A3F86421E0E70B
:1035200003B0BDE8F08370470CB470B584B008AB4D
:10353000826853F8046B0193D2F864315B07044648
:1035400003D5D37E8B420D4609D12069314601AAAD
:1035500001F01AFF04B0BDE8704002B0704702F1FC
:103560001B016846022205F04FFAA368002D5FD0C8
:10357000DA7EAA4211D0324A0292332205F12F019B
:103580008DF80C206D228DF80D10ADF80E20DD7633
:1035900020692C4902AA01F041FE01AA20693146A6
:1035A00001F0F2FE9DF80030A268002B35D0D17EEC
:1035B000994211D02249029103F12F006D21332548
:1035C0008DF80D00ADF80E108DF80C50D3762069F3
:1035D0001C4902AA01F022FE9DF80130002BB9D04F
:1035E000A268117F9942B5D045F61B3103F12F0037
:1035F000ADF8081034256D218DF80B00ADF80C10D6
:103600008DF80A50137720690E4902AA01F006FED0
:1036100004B0BDE8704002B07047D37620690A4A12
:10362000084901F0FBFD9DF80130002B92D0D7E74F
:10363000DD762069044A034901F0F0FDADE700BFE3
:103640001B5B313B88950000789C00002DE9F04120
:10365000C3685B6890B006468846186803A90022D4
:1036600002F072FB002840F0AD80B8F1000F76D177
:10367000B5683068002800F0A98005F091FBC2B25F
:103680001046EB7F697E95F81EC0AA7603448444F9
:10369000B3FBF1F201FB1233501CC0B2BCFBF1F7DB
:1036A000013301FB17C1DBB20131013701282B7552
:1036B000A8756975EF7505D94A493069D2B201F02C
:1036C000ADFD2B7D012B05D95A1E47493069D2B279
:1036D00001F0A4FD454A4649306901F09FFDB8F16B
:1036E000000F0ED074E0022A4ED0039802F0A0F929
:1036F000F3685B680022186803A902F025FB002824
:103700003ED103980023082204A902F0F1F99DF8A4
:1037100010308DF82580DDE9051003F00302012A41
:10372000CDE90701DFD1BDF81070DDE90304C7F36F
:103730008312C3F3C2050AA9920008238DF824500E
:10374000C7F3831702F0D4F9C4F3952433690093C7
:103750003A46204607AB0AA9FDF72AFEC5E70398BB
:1037600002F066F9B268D2F854310133C2F854312C
:10377000B568D5F8543103F00703012B3FF479AF56
:10378000012010B0BDE8F081BDF81250C3F3C203B0
:103790008DF82430C5F389150827082D2C4628BF3D
:1037A00008243B46039822460AA902F0A1F92D1BE2
:1037B0003369214607AA0AA82744FDF771FE002DA8
:1037C000EBD192E7002010B0BDE8F081024658E747
:1037D0003046084A0221FFF7A7FE404610B0BDE878
:1037E000F08100BF20980000189800006C9C000039
:1037F0008895000028980000436801219868FFF729
:1038000025BF00BFF0B54468A56883B0AB680191DF
:103810001F78042F01D103B0F0BD206801A902F088
:1038200027FA60B1FE1E18BF012631462846FFF771
:103830000DFF206801A902F01BFA0028F5D10198BC
:1038400002F0F2F8032FE6D128460021FFF7FEFE32
:10385000E1E700BF2DE9F04F2DED028B8346806834
:10386000A9B0102100F5B270FEF76AFBDBF8083052
:103870001B78022B10D0DBF8100001F0C3FCDBF842
:1038800008006FF0100100F5B270FEF767FB29B079
:10389000BDEC028BBDE8F08F00239A460E93DBF857
:1038A0000400036801221C690DF137010EABA0472B
:1038B0000E9B002B00F0E6809DF93730002BEEDBED
:1038C00002F04AF9DBF808305C78012C05D0022CB4
:1038D00066D04CB183F801A0E1E79DF837205B2A60
:1038E000F8D102225A70DAE79DF837100D2908D076
:1038F0000A2906D0B3F8642164F38D12A3F8642179
:103900000CE0D3F8642112F47F5F00F09380D3F8C9
:103910006421C2F38712914200F08C801B2900F2CF
:10392000ED801B2900F28E8201A353F821F000BF25
:103930009F380000453E0000453E0000453E000027
:10394000453E0000453E0000453E0000453E00006B
:10395000653D00005D3C0000453E0000453E000026
:10396000453E0000453E0000453E0000453E00004B
:10397000453E0000453E0000453E0000453E00003B
:10398000453E0000453E0000453E0000453E00002B
:10399000453E0000453E0000453E0000533C00000F
:1039A00083F801A0DBF80840D4F86431180769D522
:1039B0009DF83730313B1B2B3FF671AF01A252F817
:1039C00023F000BFC33A0000DB3A0000A54000002E
:1039D000CF3A00009F3800009F3800009F38000059
:1039E0009F3800009F3800009F3800009F3800007B
:1039F0009F3800009F3800009F3800009F3800006B
:103A00009F380000994000001B4000002540000046
:103A1000B13F00009F380000D33A00009F380000FB
:103A2000C73A00009F3800009F3800009F38000010
:103A3000E33A0000B3F8642161F38D12A3F8642126
:103A4000DBF80800867F002E63D1C0F86061DBF8E8
:103A50001000C14901F0E2FBDBF80830BF4A022147
:103A60001970DBF80810002381F82030DBF808100B
:103A7000CB77DBF808108B77DBF800300321584652
:103A8000FFF752FD00215846FFF7E0FD00283FF404
:103A9000F2AEDBF80030B14A03215846FFF744FD8F
:103AA000DBF80830D3F8642112077FF5E4AE5846FE
:103AB000AA4A20330821FEF705FF5846FFF7ECF924
:103AC000D9E6032363705846FFF7BAF8E7E6032305
:103AD00063705846FFF750F8E1E603236370DBF8A4
:103AE0000840D4F86431B4F8642103F0010383F092
:103AF000010363F30002A4F86421D0E67F2940F0BB
:103B0000A181DBF80830D3F864311D077FF5C7AE1B
:103B1000D1E290F82020002A38D0914D05E0FF2C0A
:103B200000F0BF8491F820201C46AA5C631CDBB225
:103B3000170700EB0301F2D4002C40F0C98383196E
:103B400006F11F0CDB7FEB5C190784441ED50CF1DA
:103B50000104E7B26246D4B212F8013DEB5C391BB6
:103B600013F00803C9B2F6D194450FD0711A01447D
:103B7000E41B81F82030DBF80820937F1C44947705
:103B8000DBF808309A7FDA77DBF80800203005F0A0
:103B900007F9DBF80830002410F0FF08C3F8604193
:103BA00000F07581DBF80830D3F858011AAE48B13F
:103BB00023463146092201F09BFF9DF8703098455D
:103BC00000F0868408F10A0808270EE001F090FF53
:103BD000DBF808201A94D2F85C012346092231460A
:103BE00001F052FF013F00F053814146DBF8140021
:103BF00001F0B2FE3146092204460346002840F097
:103C00003683DBF80800D0F85C512846002DE9D057
:103C100001F06EFFDBF808301B9AC3F85C212146E7
:103C20000922304604F018FF23460922314628466F
:103C300001F02AFF284601F0D9FEDBF80850D5F83C
:103C40005C012346092231460028BFD1C5F858013E
:103C5000C8E7DBF8083001225A7020E6DBF80800DC
:103C6000D0F864311B077FF51AAE837FC3F17F0361
:103C700013F0FF0304933FF412AEC27F384C0B9451
:103C800000F12001A03004F0BFFEDBF80830DA7F3D
:103C900013441AA983F8A0A0DBF80830DA7F1A448D
:103CA0000FA8D27FA45CC3F860A1DBF8082004F061
:103CB00008030993A032C4F3C0030793FEF770FB17
:103CC0001A98002800F0238405F06AF85FFA80F95A
:103CD0000022CDE910220F9BCDF828B005921546A1
:103CE0001746069208929346002B00F01B82079A13
:103CF000013A13449D4280F0158212AB00930022DA
:103D000010AB29463846FEF70DFB28AB03EB8506C2
:103D10004FF00108039616E01968039B53F8380C1E
:103D200005F02CF88446424610AB29463846BCF1D3
:103D3000000F00F0E68312AE0096FEF7F3FA002CB7
:103D400000F0F383A046109B08F10104002BE3D19F
:103D5000DDF828B0A3E500BF489700008895000073
:103D600071AF0000DBF80830D3F8642116077FF547
:103D700096AD997F00293FF492ADD87F00283FF49B
:103D80008EAD091ACDB200F120011F306A1C194412
:103D9000184404F047FEDBF80820D37F013BD377BB
:103DA000DBF80820937F013B9377002D00F0B2836E
:103DB000DBF81000C649082201F030FADBF80000F9
:103DC000DBF80860002800F0BD8304F0E9FFC4B20E
:103DD0002146F27F737EB07FB4760A444418B2FB6A
:103DE000F3F003FB1022B4FBF3F1C0B203FB114369
:103DF0000132C9B20133441C3275884201F101021B
:103E0000B4757375F27500F09F83DBF81000B14A4A
:103E1000B14901F003FADBF81000B04AAE4901F0F5
:103E2000FDF9DBF80810AC4ACB7F20330B44584631
:103E30000821FEF747FDAA4AA749DBF8100001F068
:103E4000EDF92CE5A74B5B5C13F0970F3FF427AD22
:103E5000DBF80830D3F864211407C2F3C00000F186
:103E60000B839A7F7E2A3FF61AADDA7F9C180132C7
:103E7000DA7784F82010DBF80830DA7F134483F80F
:103E80002000DBF80820937F0133937707E51AAE13
:103E90005846FEF771FEDBF80820DBF80000D47FFF
:103EA00020B104F07DFFDBF808200444517EB4FB10
:103EB000F1F301FB1344002C40F002812032314623
:103EC00011A8FEF76DFA119B002B00F0C9810028A4
:103ED00040F09882844D854B5B1BDB0800F0198114
:103EE00005EBC3046B681A98196804F047FF0028B3
:103EF00040F00881DBF80800002110220430129104
:103F000004F0AAFD6B68DA6832B10FCBDBF8084029
:103F1000043484E80F006B68D3F808A0DFF8DC8174
:103F2000DFF8DC91002308EE106A35460393012781
:103F3000002421E0686804F021FF4946002800F0D1
:103F40005781686804F01AFF0646224612AB3946CC
:103F50005046002E00F04C8116AE0096FEF7E2F9B6
:103F6000621C0DD0129B5BB11968686804F006FFF3
:103F70000134002800F07082119BBB424146D9D821
:103F800018EE106ADBF808301B69002B00F0838202
:103F90000398119906EB8002091A58469847DBF8F6
:103FA0000830B3F864216FF34102A3F8642153E5AC
:103FB000DBF80000002800F0268104F0F1FEC5B215
:103FC000294608460135E37F667EA27FA176034439
:103FD0001044B3FBF6F106FB11320132D2B2B0FB52
:103FE000F6F7013106FB1703C9B201330137AA42C4
:103FF0002275A1756375E77500F07D81012A00F0D7
:1040000015823B490122DBF8100001F007F9DBF8CB
:104010000820D37F013BD37741E400215846FEF7C7
:1040200069FE3CE4DBF80000002800F0EF8004F0BB
:10403000B7FEC5B22846E27FA37F617EA576024423
:104040000344B2FBF1F5B3FBF1F001FB152201FBD8
:104050001033D2B2DBB2EEB25F1C551CC0B2EDB26F
:1040600006F1010C67759A4200F10107257584F885
:1040700016C0E77500F04481A9424FF0010200F03C
:10408000E0811C49DBF8100001F0C8F8DBF80820DB
:10409000D37F0133D37702E401215846FEF72AFE8D
:1040A000FFF7FDBB03236370DBF80830D3F86431FE
:1040B00019077FF5F4AB5846FEF7DEFFFFF7EFBBBD
:1040C0000D49DBF8100001F0A9F8DBF80820F5E64F
:1040D000A8950000709C0000889500006C9C000072
:1040E000749C000071AF00007CB0000034B100008F
:1040F00018980000D09700004897000088980000AA
:104100008C980000A5423FF4F5AE0835A5427FF437
:10411000E9AEC04B0093C04A1A9B02215846FFF7F4
:1041200003FA99E4099B002B40F0978028AB03EB3E
:10413000850353F8380C002800F08F8004F030FE1F
:104140005FFA80F928AB03EB8508CDF80C80DDF829
:104150001880002412AB0093224610AB2946384643
:10416000FEF7E0F8109B661C002B00F0CE8019686B
:10417000039B4A4653F8380C04F01AFEC8B9119B49
:1041800008F10108BBB1109B186838B104F008FEB3
:10419000059BC0B2834238BF03460593049B002BA6
:1041A00036D1DDF840C0CDF844C0002E00F0698162
:1041B000A3463446CEE7DDF840C0DCF80030ABB1B2
:1041C000184604F0EDFDDDF840C0C3B20593184673
:1041D000049BA0EB0900834206DD059B0894A3EB3A
:1041E0000903DBB20493DEE70894DCE70590EFE710
:1041F000DBF80820B2F8643143F0020318EE106ACD
:10420000A2F86431BEE601460125DCE6054612E768
:1042100016AB5A460093384611AB2946FEF782F892
:10422000DDE910C3D3F800B0DCF80000002306E09D
:104230001BF8011091420AD1B3F5807FB3D009EB8E
:1042400003015FFA83FE425C0133002AF0D1049B34
:10425000734528BF73460493A5E74FF0000971E743
:104260006E49DBF8100000F0D9FFFFF7F5BBDBF873
:104270000830D3F85801002800F01A8100230922E1
:1042800001F036FCDBF808301B94D3F85801092202
:104290000023314601F0F8FBDBF8083000221B92C6
:1042A000D3F858211A929A7F8DF87020C3F858419C
:1042B000314620460023092201F0E6FBDBF8081016
:1042C0008A7F204601322031092301F0DDFBDFE542
:1042D0002030721C121B011904F0A4FBDBF808202B
:1042E000937F1C1B9477DBF808309A7FDA77DBF832
:1042F0000800867F23E401297FF480AEFFF7CFBA60
:1043000086427FF4B9AEFFF7CABACDF818804FB134
:10431000109B3BB10F9B079A0135EDB29A1895425D
:10432000FFF4E2AC069B5A46DDF828B0002B3FF4C0
:10433000B6AA012B00F04781DBF80830384E83F82D
:104340001DA0089CAB00079312AB0093224610AB54
:1043500029463846FDF7E6FF109B079A196828ABF7
:1043600013444A4653F8380C04F022FD621C0346FD
:1043700003923046002B43D1109BD3F80080069B5C
:10438000013B0693B8F1000F00F0188104F008FD1E
:10439000059ADBF8083014185B7E0993304604F068
:1043A000FFFC01464046089104F0FAFCDDE90813E1
:1043B000DBF808E01B4A9EF81DC0E4B25B1AB3FBB1
:1043C000F4F3DBB2BCFBF3F103FB11C3241A0CF1D1
:1043D000010C13F0FF0FE4B28EF81DC043464FF0FE
:1043E0000701584640F0AA80CDF800803346FFF719
:1043F0009BF8002C40F0C080069B002B00F0C3808F
:10440000039CA1E70346084A02215846FFF78CF8AF
:10441000FFF722BB60980000589800004897000002
:10442000E0980000E498000074980000B249DBF8BE
:10443000100000F0F3FE627E002A3FF4E8ADAF49C1
:10444000E1E5AF49DBF8100000F0E8FE627E002AEB
:104450003FF41CAEAB4915E6129EF3683BB196E8FB
:104460000F00DBF808400397043484E80F00D6F807
:1044700008A0013704355BE55846FEF777FEFFF7E5
:104480000EBAA14A0A98CDF818800421FFF74CF81B
:104490004FF0FF3B3BE79D4A02215846FFF744F8A7
:1044A0007DE5002380F82030DBF80800FFF76EBBC5
:1044B000C3F85841DBF8081000230022C1F85C4122
:1044C000CDE91A23DBF808309B7F8DF87030EFE6DA
:1044D000DBF808200923D2F8580102F1A00108F105
:1044E000010201F005FBDBF8080000F1A00120301B
:1044F00004F044FCDBF80830A0B183F8A040FFF7DB
:1045000061BB109B9F68002F7FF404AF0AE78146D0
:10451000FFF7DEBB7E4A7F49DBF8100000F07EFE2D
:10452000FFF7BDB983F8A000B2E4DDF828B0764A01
:1045300004215846FEF7F8FFFFF7B1B9754AFEF7B8
:10454000F3FF56E7014644E4DBF80810714ACB7FDD
:1045500020330B4458460821FEF7B4F9DBF810006D
:104560006D4A6C4900F05AFE6649DBF810002A4695
:1045700000F054FEFFF793B96049DBF810002246C3
:1045800000F04CFE38E7DBF80030644A584603215F
:10459000FEF7CAFFDBF808305E4A20330821584690
:1045A000FEF790F95846FEF777FC119B049A1968BC
:1045B00058464944FEF7F8FCFFF771B9DBF80830BC
:1045C00083F81D8018E73B7883BB119B186808B1FE
:1045D00004F0E6FB814506D0119B049A1968584601
:1045E0004944FEF7E1FCDBF808400B99E37FE21851
:1045F00092F820208A5C12F0080225D1D4F86431A8
:10460000DF071BD5B4F8643162F30003A4F864310A
:1046100020215846FEF7AAFDDBF80820B2F86431E5
:1046200043F00103A2F86431FFF739B912AB0093EC
:104630002946384611ABFDF775FEC6E720215846DE
:10464000FEF794FDFFF72BB9A17F99427FF627A9CA
:10465000DBF8000018B104F0A3FBE37FA17F627ECA
:10466000A07653FA80F351FA80F0B3FBF2F5B0FB79
:10467000F2F102FB153302FB1102EDB201330132FC
:10468000681C01312375A0756275E175DBF808209F
:10469000D37F0133D377DBF80000DBF8084008B1A3
:1046A00004F07EFBA17FE27F637EA07652FA80F267
:1046B00051FA80F0B2FBF3F1B0FBF3F603FB1122E9
:1046C00003FB1603C9B2013201330136481CA9426B
:1046D0002275A0756375E67506D01149DBF81000E8
:1046E00000F09CFDFFF7DBB80449DBF81000012265
:1046F00000F094FDFFF7D3B820980000D097000099
:104700001098000018980000B498000094980000D9
:10471000949C0000889500006C9C0000EC980000C0
:104720004897000001290AD0022904D18368D3F8F0
:1047300064319B0703D4034A0221FEF7F5BEFEF75E
:1047400043B900BF9498000010B5012982B0044617
:104750000BD002290B4616D08268D2F86411890763
:1047600003D4022B07D802B010BD204602B0BDE82A
:104770001040FEF729B95368084A022102B0BDE88B
:104780001040FEF7D1BE53680193054C1368054AEB
:104790000094FEF7C9FE02B010BD00BFFC980000F7
:1047A000648F0000F098000030B583681B78012BFF
:1047B00083B041D104464068036800219B68984754
:1047C000054610B1284603B030BDA368DA7E082A3A
:1047D0000BD01B4A00921B4901910822DA7620690E
:1047E00019496A4600F01AFDA3681A7F012A0BD006
:1047F000164A00926D210122ADF804101A77206943
:1048000011496A4600F00AFD2069114900F006FDD1
:10481000A3680D4A02211970A168002381F8203095
:10482000A168CB77A1688B77204623680321FEF728
:104830007BFE284603B030BD0825284603B030BDB6
:104840001B5B313B33376D00889500001B5B3430B8
:104850001899000010B48368D3F86421C2F34004AF
:1048600092070AD401290CD1B3F8642164F3C3027E
:10487000A3F864215DF8044B70475DF8044BFEF724
:10488000A3B85B68024A5DF8044B0221FEF74CBEF8
:10489000FC9800008368D3F86421920708D40129AA
:1048A00008D1B3F8642142F00802A3F864217047EC
:1048B000FEF78AB85B68024A0221FEF735BE00BFE8
:1048C000FC980000F0B58368D3F86421C2F340047B
:1048D000920787B02AD401292CD1D3F85C5105B3B3
:1048E000184F064628460023092203A901F000F9C3
:1048F0009DF81420B16828460132A031092301F047
:10490000F7F8B368049D03F1A002009223463A46EB
:10491000002130460134FDF75DFF0DB1082CE1D1D7
:10492000B368002283F8A02007B0F0BDFEF74CF872
:1049300007B0F0BD5B68044A0221FEF7F5FD07B041
:10494000F0BD00BF1C990000FC9800008368D3F8FC
:104950006421920708D4012908D1B3F8642142F0F8
:104960000402A3F864217047FEF72EB85B68024A80
:104970000221FEF7D9BD00BFFC98000070B5856824
:10498000D5F86421930784B0C2F340061DD40129F1
:1049900020D1C3685B681D680446284601F02EFAE2
:1049A000A368A968D3F854310291C0B2642202FB13
:1049B00000F2B2FBF1F2D2B2CDE900203146094A51
:1049C0002046FDF707FF04B070BD04B0BDE870409D
:1049D000FDF7FABF6B68044A022104B0BDE87040DD
:1049E000FEF7A2BD28990000FC98000010B483686F
:1049F000D3F86421C2F3400492070AD401290CD1F0
:104A0000B3F8642164F38202A3F864215DF8044BD7
:104A100070475DF8044BFDF7D7BF5B68024A5DF84D
:104A2000044B0221FEF780BDFC98000030B484687E
:104A3000D4F864219307C2F3400509D401290AD1AF
:104A4000C4F85451C3685B6830BC186801F0DAB927
:104A500030BCFDF7B9BF6368024A30BC0221FEF7E3
:104A600063BD00BFFC9800008368D3F864219207FF
:104A70000FD401290FD110B50446094A094900692C
:104A800000F0CCFBA36850225A76A36818221A764D
:104A900010BDFDF799BF5B68034A0221FEF744BDD4
:104AA0008C9C000088950000FC98000070B585681B
:104AB000D5F86441A30782B0C4F3400611D402299B
:104AC00014D81BD0D5F86411114C124B124A11F0B6
:104AD000080F18BF2346314602B0BDE87040FDF70D
:104AE00079BE02B0BDE87040FDF76EBF6B680B4A3F
:104AF000022102B0BDE87040FEF716BD5368019375
:104B0000074C1368074A0094FEF70EFD02B070BD13
:104B10005CA700006099000064990000FC98000008
:104B2000648F0000F098000070B5012982B004463F
:104B300010D08568D5F86461B3070BD402290FD172
:104B4000536801930A4C13680A4A0094FEF7ECFC80
:104B500002B070BD204602B0BDE87040FDF734BF22
:104B60006B68054A022102B0BDE87040FEF7DCBC6C
:104B7000648F0000F0980000FC980000F0B5012957
:104B800083B0044611D08368D3F86441A40744D4A9
:104B9000022947D853682A49019313680091294A8A
:104BA0000221FEF7C1FC03B0F0BD8568FDF718FBDC
:104BB00028BBA368244920691F7D9E7DFA2200F04E
:104BC0002DFB20692149FA2200F028FB2046FDF741
:104BD00007FBA0B9A3681A7D6A76A368D21B9B7DE8
:104BE0002B7612F0FF0225D19B1B13F0FF02DAD0C7
:104BF0002069174903B0BDE8F04000F00FBBA3687F
:104C0000144A50215976A3681821197620460421A8
:104C100003B0BDE8F040FEF787BC03B0BDE8F0404C
:104C2000FDF7D2BE5B680C4A022103B0BDE8F0403C
:104C3000FEF77ABC0949206900F0F0FA2B7ED3E731
:104C4000648F0000F0980000D097000010980000DA
:104C50002098000078990000FC9800001898000047
:104C60002DE9F04F054687B0AE480C46904604F05B
:104C700097F80646AC4804F093F8AB68AB495B681C
:104C8000AB4A0091361A08212846FDF71BFEAB6897
:104C90005868B6B2002800F02E8104F081F887B27F
:104CA000A24804F07DF8AB689968384482B211B12B
:104CB0002846FDF785FC9F4A00212846FDF78AFD1E
:104CC000B8F1000F32D0002C00F0178108EB480833
:104CD00004EB8808A1461FE004F062F8D9F8003020
:104CE00007461BB1184604F05BF80744BE420ED2DB
:104CF000D9F80400002800F08E8004F051F886B244
:104D0000D9F8000018B104F04BF8304486B209F12C
:104D10000C09C84500F08180D9F804000028DBD1D7
:104D2000D9F80030002BF2D00746DBE77E4804F0CC
:104D300037F8023006447B4B7F4A0093B6B23346C5
:104D4000082128460336FDF7BDFD7C49B2B228464E
:104D5000FDF736FCAB68DF68002F52D000242646F2
:104D600020463A780134230102A9103B8AB17B68BE
:104D70009847029898B10DF1080804F011F886429E
:104D8000EED2D8F8000000283ED004F009F886B230
:104D9000E6E77A68D05802EB03080028EDD1012C31
:104DA0002FD0674ADFF890A10021284606F10209BA
:104DB000FDF710FD1FFA89F94FF0000814E07B6839
:104DC0009847029BEBB102AC08210093524628465B
:104DD0004B46FDF777FD6168721D92B22846A9B176
:104DE000FDF7EEFB08F101083B784FEA081202A933
:104DF0004046002BE3D17C68A35804EB0814002B39
:104E0000E2D107B0BDE8F08F0646A9E74D49286911
:104E100000F004FAE6E7064672E7434803F0C0FFF5
:104E2000871C3744BFB23F4B434A009307F1030945
:104E30003B46082128461FFA89F907F1020AFDF7C7
:104E400041FD5FFA8AFA3D494A462846FDF7B8FB1C
:104E5000AAF1020A2EE034492846CDE900123A4A66
:104E60000821FDF72FFD606800283DD003F098FF72
:104E7000C6B22068002835D003F092FF5FFA80FBAD
:104E8000294803F08DFFAAEB0606A6EB0B06301AA5
:104E900010F0FF022AD12D4928693A2200F0BEF90C
:104EA000A168B1B14A462846FDF78AFB0C34A045FB
:104EB0003FF450AF63688BB12268002ACBD10093D6
:104EC00008211D4A3B462846FDF7FCFCA168002945
:104ED000E8D11C49286900F0A1F9E7E72368002B15
:104EE000EDD1DDE78346CBE70646C2E718492869DE
:104EF00000F094F9CFE70746D2E60B4803F050FFE5
:104F000002300644B6B2074B009328460A4A33469D
:104F10000821FDF7D7FCF21C084992B22846FDF79C
:104F20004FFB17E7B89C0000289E0000A09C0000E3
:104F3000B8990000D8970000E4970000EC970000B3
:104F40000098000048970000B4990000A895000060
:104F5000D09700001A60C0681A4601F041B800BF3F
:104F60004069054A0378D35C13B1043002F0D6B926
:104F70000C3001F087BE00BF180F002030B583B0A1
:104F8000FF2304460093C06801236A4601A900F08C
:104F90004BFF08B9009808B903B030BD63690C4DE8
:104FA0001A780199AA5C6AB1C2B2181D02F01EF902
:104FB0000028F1D1A3682246186840F26661FCF728
:104FC0002DFDE9E7C2B203F10C0001F0B7FDEFE7F8
:104FD000180F002070B5037882B0FF26012B04461D
:104FE0000D46019604D0022B26D08BB102B070BDC5
:104FF000017AE86800F05AFF237A23B16B68002039
:10500000D3E9002190472846FFF7B8FF02B070BDF2
:10501000017A286901F028F801AA2869019601237C
:10502000694600F0A1FF019A7AB96B680120D3E9C3
:105030000021904702B070BD017AE86800F036FFA9
:105040002846FFF79BFF02B070BD6869064C0378E5
:105050000099E35CD2B21BB1043002F05FF8E4E7E0
:105060000C3001F0F7FCE0E7180F002038B543687A
:1050700093F8283004460D46A3B901B360691B4A72
:105080000378D35C5BBB0C3001F076FC616860692F
:105090000831002201F0CEF828BB6368012283F8B2
:1050A000292038BD83681868FCF7FEFC30F008033F
:1050B000F7D1002DE2D1636893F8283053B90C4A38
:1050C000A0680021FCF79CFC6368012283F828207B
:1050D0000028E6D12046BDE83840FFF74FBF043036
:1050E00001F07CFFD2E7062038BD00BF180F00207A
:1050F000614F000038B50446406802606268536042
:105100006268002382F82830626882F8293060687B
:105110000D462022083003F077FC2C612946606997
:10512000074A01F087F8054608B1284638BDE0680F
:1051300000F06CFE206900F069FE284638BD00BF13
:10514000D54F000010B5044640690B4A0378D35C84
:1051500043B1043001F042FFA368BDE81040186875
:10516000FCF7A2BC0C3001F007FCA368BDE81040BE
:105170001868FCF799BC00BF180F0020F0B51A6042
:1051800083B005461A46006900F0AAFE044610B135
:10519000204603B0F0BD6869194E0378F35C2BB369
:1051A000043002F015F80028F2D1FF272869019792
:1051B000012301AA694600F0D7FE0028E8D16869FA
:1051C000019A03780099F35CD2B29BB1043001F0EC
:1051D000A5FF04466B6893F82930002BD8D0002C2B
:1051E000D6D12869019900F03FFFD1E70C3001F0DA
:1051F00099FCD8E70C3001F02DFC0446EAE700BF2B
:10520000180F0020826842B110B504464369016856
:10521000006998470023A36010BD70470EB400B525
:1052200082B0039921B104AB01AA019300F0ACF85C
:1052300002B05DF804EB03B0704700BF2DE9F04FFA
:10524000164683B0B142DDE90C920F4605469A46F8
:10525000C0F095800B464FF00108B3FBF6F39E4279
:1052600008F10108F9D9D04538BFD04612F0010342
:10527000019302D1B9F1000F5ED1AA68012403E0C5
:105280000AF1FF3A06FB04F4BAF1010FF8D8B7FBB4
:10529000F4F39E42F6D9DFF8ECA007E0B442B4FB89
:1052A000F6F31AD3AA681C46B7FBF3F31AF803B057
:1052B000BBF10A0F04FB137728D02B68511CA9609F
:1052C00003F802B0D5E901329A42E7D32846FFF746
:1052D00099FFB4FBF6F3B442E4D2019B9BB1B9F160
:1052E000000F10D02024C84509F1FF390BD2AB685C
:1052F0002A68591CA960D454D5E901329A4214D2C3
:10530000B9F1000FEFD103B0BDE8F08F511C2B684D
:10531000A9604FF00D019954D5E901329A42CCD3DE
:105320002846FFF76FFFAA68C7E72846FFF76AFF1E
:10533000B9F1000FD7D1E6E793071AD42024AA6861
:10534000C84502F1010199D22B68A9609C54D5E9A6
:1053500001329A4209F1FF3903D2B9F1000FEFD1BE
:105360008CE72846FFF74EFFAA68B9F1000FE7D196
:1053700084E7BAF1000F0CBF30242024DFE74FF0A0
:10538000010870E74C9E0000002900F054822DE9CE
:10539000F04FDFF8B8950C7885B0064690460D467C
:1053A0004FF00D0A10E00A2CB36800F0AD803268AF
:1053B000591CB160D454D6E901329A4280F0A080E1
:1053C0002C78002C00F087800135002C00F08380C1
:1053D000252CE8D1294600270D4611F8012B2D2A4E
:1053E00000F08880302A00F088802B2A7AD02A2A80
:1053F00000F09980A2F13003092B4FF000040BD884
:1054000004EB840402EB440415F8012FA2F13003ED
:10541000092BA4F13004F3D92E2A00F09080002348
:1054200001E015F8012F02F0FB016829F9D0252AC7
:1054300000F07781583AD1B2202947D8202A45D8A0
:10544000DFE812F035014400440044004400440009
:10545000440044004400440044004301130144005C
:10546000440044004400130144004400440044004C
:1054700044004400D20044004400A20044009400D0
:1054800044004400350101209842024638BF1A46C4
:105490000292002C40F05081B80740F16E81002B41
:1054A00040F04E821C46BBF1000FC0F20A827A0720
:1054B00000F11A8207F00302022A00F0EA81CDE926
:1054C000004759460A223046FFF7B8FE01352C78CE
:1054D000002C7FF479AF337B002B40F01C8105B0AA
:1054E000BDE8F08F0D4611F8012B2D2A47F0040777
:1054F0007FF478AF47F001076EE747F002076BE7EC
:105500003046FFF77FFE5BE73268591CB16002F856
:1055100003A0D6E901239342FFF449AF3046FFF7D9
:1055200071FEB36843E7D8F800301A1DC8F80020B0
:105530006A781C682E2A05F101057FF470AF6A783D
:10554000A2F13003092B05F101054FF000033FF6EE
:105550006AAF03EB830302EB430315F8012FA2F1BB
:1055600030010929A3F13003F3D95CE7D8F8002012
:10557000111DC8F8001011683046CDE900470A2215
:10558000FFF75CFE0135A2E7D8F800301A1DC8F815
:10559000002017F00107D3F800B040F0F080BBF115
:1055A000000F03D0584603F0FBFB0746BC4240F215
:1055B0004381002C00F04081202205E0BC4200F035
:1055C0003B81002C00F03881B1683368481CB06022
:1055D0005A54D6E90130984204F1FF34EED33046F4
:1055E000FFF710FE2022E9E7D8F80020131DC8F8C5
:1055F0000030B36831681768581C3022B060CA5454
:10560000D6E90123934280F0EF803268581C78215C
:10561000B060D154D6E901329A4280F0E0800F2F79
:1056200003D93B461B090F2BFCD84FF0805406E0F2
:105630000F2C4FEA14137FF649AFB2681C46B7FB34
:10564000F4F319F803B0BBF10A0F04FB137754D03D
:105650003368511CB16003F802B0D6E901329A42B6
:10566000E6D33046FFF7CEFDE2E7D8F80020111D63
:10567000C8F80010D2F800B08BEAEB72A2EBEB7224
:10568000092A7FF700AFDFF8C8C20120114663295D
:10569000ACFB02E200F101004FEAD202F6DC9842D4
:1056A000024638BF1A460292002C45D1F4E6D8F8DB
:1056B0000020111DC8F8001011683046CDE90047E0
:1056C0001022FFF7BBFD013501E7D8F800301A1DA5
:1056D000C8F800201C78B3680A2C00F011813268E9
:1056E000591CB160D454D6E901329A42FFF4EEAEAF
:1056F0003046FFF787FD0135E9E63368511CB1609C
:1057000003F802A0D6E901329A42A1D33046FFF74E
:1057100079FDB2689CE7304605B0BDE8F04FFFF771
:1057200071BDB3683168581CB060CA54D6E9013203
:105730009A42DDD20135CAE6BBF1000F59DB7A0788
:1057400057D4B80702D5002B3FF4ADAEF9073FF5AB
:10575000AAAE94B120220299A142BFF4A4AEB168CE
:10576000481CB06030684254D6E90101814204F11E
:10577000FF3480F0D480002CEDD1002493E69BF818
:105780000030002B00F0E080B0685F46CBF10102F2
:105790000A2B02EB070B3CD0411CB16031680B5463
:1057A000D6E90130984226D217F8013F002BEFD1FD
:1057B0005C457FF68BAE202702E05C453FF486AE69
:1057C000B2683368511CB1609F54D6E901329A42E5
:1057D00004F1FF34F1D33046FFF714FDEDE7304616
:1057E000FFF710FDB2681AE73046FFF70BFDB3680C
:1057F0000BE7013CA5E730460292FFF703FD17F8DF
:10580000013F002BD4D0029AB0680A2B02EB070BA1
:10581000C2D1411CB160316801F800A0D6E9011085
:105820008842B9D33046CDE90232FFF7EBFCDDE91F
:105830000232B068B0E770479BF80040002C3FF49C
:1058400045AE0A2CB0680ED03368421CB2601C54BE
:10585000D6E90130984214D21BF8014F002C3FF4D6
:1058600035AE0A2CF0D13368421CB26003F800A0B8
:10587000D6E901309842E7D33046FFF7C3FCB06861
:10588000E2E73046FFF7BEFC1BF8014F002CD8D1F1
:105890001CE6002B7FF413AE8CB130220299A1429A
:1058A000BFF40DAEB168481CB06030684254D6E910
:1058B0000101814204F1FF343BD2002CEED10024DF
:1058C000FDE5B1684A1CB26032682D205054D6E91B
:1058D00001219142CBF1000BFFF4ECAD3046039374
:1058E000FFF790FC039BE5E5B1684A1CB2603268A3
:1058F0002B205054D6E901219142FFF4DBADEDE7B6
:105900003268591CB16002F803A0D6E90123934222
:10591000FFF4E5AE3046FFF775FCB368DFE63046CE
:105920000393FFF76FFC039B2022002C7FF413AF3F
:1059300023E730460393FFF765FC039B3022BCE767
:10594000F9073FF5B0AD18E79B4631E74C9E0000E4
:10595000CDCCCCCCFCF7CEBB2DE9F041058B03318F
:10596000043D4E198046B6FBF5F6FCF7DFFBA0B30D
:10597000F6B24FF48073013E0446C580C0F8008043
:1059800083802BD00346002508E06279AE4202F105
:10599000010262713860C0F800801FD040461F4687
:1059A000FCF7C4FB013503460028EED16779791E68
:1059B00017D02246013399421268FBD1D2F80080F9
:1059C0005FB12668002501E034463668214601357E
:1059D0004046FCF7D1FBAF42F6D800242046BDE894
:1059E000F08120682146FCF7C7FBF6E7F8B5467959
:1059F0000146701E13D00A460023013398421268F4
:105A0000FBD1176856B10D68002401E029462D68C6
:105A100001343846FCF7B0FBA642F7D8F8BDBDE824
:105A2000F8400868FCF7A8BB04300121FCF7A4BAD1
:105A30002DE9F041012104460430FCF7ABFA10F0E7
:105A4000FF0301D0BDE8F0816779791E16D02246A8
:105A5000013399421268FBD1D2F80080002FF1D0B7
:105A60002668002501E03446366821460135404667
:105A7000FCF782FBAF42F6D8BDE8F08120682146F2
:105A8000BDE8F041FCF778BB2DE9F8430546C68830
:105A90004079144606FB00F2043A04EB030C1F1D88
:105AA000624538BFD41ABE428846B7FBF6F106FB02
:105AB000117002D801392D68FCD1371AA74228BFCE
:105AC00027469CB14FF000090430E41B28443A46B5
:105AD00008EB090102F098FFA642B9442D68374649
