:1000000000000120D51D0000FD1D0000FF1D0000A7
:10001000011E0000031E0000051E0000000000007D
:10002000000000000000000000000000071E0000AB
:10003000091E0000000000000B1E00000D1E000045
:100040000F1E00000F1E0000391200000F1E0000DE
:100050000F1E00000F1E00000F1E00000F1E0000EC
:10006000111D00000F1E00000F1E00000F1E0000DB
:100070000F1E00000F1E00000F1E00000F1E0000CC
:100080000F1E00000F1E00000F1E00000F1E0000BC
:100090000F1E00000F1E00000F1E00000F1E0000AC
:1000A0000F1E00000F1E00000F1E00000F1E00009C
:1000B0000F1E00000F1E00000000000000000000E6
:1000C0000F1E00000F1E00000F1E00000F1E00007C
:1000D0000F1E00000F1E00000F1E00000000000099
:1000E0000000000000000000000000000000000010
:1000F0000000000000000000000000000000000000
:1001000000000000000000000000000000000000EF
:1001100000000000000000000000000000000000DF
:1001200000000000000000000000000000000000CF
:1001300000000000000000000000000000000000BF
:1001400000000000000000000000000000000000AF
:10015000000000000000000000000000000000009F
:10016000000000000000000000000000000000008F
:10017000000000000000000000000000000000007F
:10018000000000000000000000000000000000006F
:10019000000000000000000000000000000000005F
:1001A000000000000000000000000000000000004F
:1001B000000000000000000000000000000000003F
:1001C000000000000000000000000000000000002F
:1001D000000000000000000000000000000000001F
:1001E000000000000000000000000000000000000F
:1001F00000000000000000000000000000000000FF
:1002000010B5054C237833B9044B13B10448AFF350
:1002100000800123237010BDB0000020000000000A
:100220003C430000084B10B51BB108480849AFF328
:1002300000800848036803B910BD074B002BFBD0B2
:10024000BDE81040184700BF000000003C4300001C
:10025000B40000208800002000000000154B002B97
:1002600008BF134B9D46A3F5803A00218B460F46ED
:100270001348144A121A01F0D2FF0F4B002B00D082
:1002800098470E4B002B00D0984700200021040017
:100290000D000D48002802D00C48AFF3008001F09B
:1002A0008DFF2000290001F0D9F901F073FF00BF94
:1002B0000000080000000120000000000000000015
:1002C000B000002034090020000000000000000001
:1002D0002DE9F04F854C626823689A4285B042D080
:1002E0000023C4F81834BFF34F8F6068A56805EA8F
:1002F0000003023304EB8302111D127912F0030F85
:10030000024610D10B884988C3F3891303EB91137C
:1003100001331A4402EA0503023304EB8306311D5C
:100320003679B607EED004EB8303511C5B6801936A
:10033000294004EB810103F00303C9680291022BF9
:1003400002F10208694F12D0012B69D0032B06D0AD
:100350002368181A18BF012005B0BDE8F08FD7F840
:100360001834002BF4D1002005B0BDE8F08FBDF8A3
:1003700006305F48C3F38919B9F1500FCA46A8BFC8
:100380004FF0500A6AF38F130AF10801ADF80630F6
:1003900000F06AFB0646002800F0838025EA080B7F
:1003A0000BF1010B00F0A6FB4FEA8B0B304601A9C5
:1003B0000822002300F0D4FBDA4540F28A80BBF12A
:1003C000000F70D107F10C0152463046082300F0AF
:1003D000C7FB09F1030708EB9707D4F81834DFF8D7
:1003E0000C81D4F81054002B55D14DB16B7A2846AE
:1003F000314613B12B681B6898476D68002DF5D105
:10040000304600F087FB002000F0E0FAD4F8183402
:10041000364A03B95760002000F0E0FA606897E7B9
:10042000BDF804303248C3F38312062A28BF0622DF
:10043000911C62F389138900ADF8043000F014FBBD
:10044000064670B300F056FB0023304601A908228F
:1004500000F086FBBDF8043013F4707F44D04FF0F9
:10046000000A4FF0080908EA050104EB81014B4638
:100470000C313046042200F073FBBDF804300AF161
:10048000010AC3F3831308F10107534509F1040975
:10049000B846E8D8A1E7304600F03CFBD8F80400A5
:1004A00056E7786854E708EA050107EB8101CBEBD2
:1004B0000A0530465A460C31EDB2082300F050FBD5
:1004C00030462A4607F10C010BF1080300F048FB07
:1004D0007FE708EA050107EB81010C3152463046FF
:1004E000082300F03DFB74E7474676E7CC00002088
:1004F0009C3B00002DE9F04F5A4C89B0A368029054
:1005000000200391019300F061FAA5686168D4F8B6
:1005100000806B180133C8EB0303032B5FD805F190
:100520000109C8EB090904F5836C04F2144701269C
:10053000A2464FF0000E5CE8003F43EA06024CE89A
:10054000002090F0000FF6D157E8003F43EA060282
:1005500047E8002090F0000FF6D101EA05030233CE
:1005600004EB8302101D127912F0030F0A4613D117
:1005700003884088C3F3891303EB901301331A44B3
:1005800002EA0503023304EB830B0BF104009BF832
:1005900004B01BF0030FEBD004EB830302325B6863
:1005A000059303F00303012B56D0022B06D1BDF8AF
:1005B0001630C3F38913033302EB930257E8003F6D
:1005C00003EA0E0047E8000B9BF0000FF6D113B1D1
:1005D000CAF80420114609EB0103032BABD905EA45
:1005E0000803023304EB830300201A7942F003026C
:1005F0001A7123680233236000F0F0F9019B029D19
:1006000008F101021A4008EA030304EB82020233F4
:1006100004EB8303290CD1601A79C5F3001161F34F
:10062000820265F3C5021A719A886FF389129A8063
:100630005A68039961F39F221146012060F301017A
:100640005A60197194F81C341BB1FFF741FE002861
:10065000FBD109B0BDE8F08FBDF81430C3F38313AC
:100660001A44ABE7CC00002038B5084BD3F810444F
:10067000012583F81C543CB12368657220465B68F1
:1006800098476468002CF7D138BD00BFCC0000202B
:1006900000B585B000230390194644F2010001AA79
:1006A000ADF80430029300F003F805B05DF804FBE8
:1006B00010B5FFF7D9FFFFF70BFE0028FBD1104C58
:1006C00010492088000440F00100FFF713FF0E4B93
:1006D0001B68DB0700D5FFDE20880C49000440F0D2
:1006E0000200FFF707FFBFF34F8F0949094BCA68A4
:1006F00002F4E0621343CB60BFF34F8F00BFFDE70E
:100700008C000020B03B0000F0ED00E0BC3B00009E
:1007100000ED00E00400FA0559B10AB9092070475C
:10072000531E1A40FAD1826001608380C260104675
:1007300070470E20704700BF10B48468C26803463B
:100740008088121B904203D204205DF8044B70474E
:10075000DA681C6802400020A154DA680132DA60CD
:100760005DF8044B704700BF03468068DA6890422A
:100770000DD010B49A6898881C6802400020A25CD2
:100780000A709A6801329A605DF8044B7047052040
:10079000704700BF30B50478012C83B01FD010D350
:1007A000022C0CD1C36826492648019301228DF8FA
:1007B000004000F0F1FB244B68461B68984703B0EB
:1007C00030BD22482249FFF7CFFF28B302A80323F8
:1007D00000F8083D1C4B1B68984703B030BD4368C8
:1007E0001C4D19782846FFF7A7FFD8B9AA68EB680F
:1007F0009A4206D002AB144A03F8080D1268184654
:100800009047A968EB68AA885B1A9A4212D2124BE9
:1008100001221A7003B030BD0D490A48012200F0D0
:10082000F5FACCE7084B01908DF800401B6868464C
:100830009847E6E702490348012200F0ADFBBEE716
:10084000C405002000000020C0050020C8050020CD
:10085000BC050020DC050020D80500202DE9F0476C
:10086000314C88B022600C46002954D0814609687A
:100870002E48A2889846FFF74FFF10B108B0BDE898
:10088000F0872B48A168A289FFF746FF0028F5D121
:10089000284C99F810A099F811C0D9F81460D9F82B
:1008A0000C500FCC6F460FC794E80F001AF1000EE2
:1008B00087E80F0018BF4FF0010ED9F80070D9F883
:1008C0000430D9F808401C481C4A8DF81C80BCF143
:1008D000000F14BF4FF00E0C4FF0000C69468DF85E
:1008E00014E08DF815C00696029503948DE88800F3
:1008F00000F09EF90028C1D1D9F80030104A013328
:100900001070BBD09DF81D304BB10E490A48012232
:1009100000F042FBB2E7072008B0BDE8F0870648C8
:1009200000F064FCF1E700BFC0050020DC050020FA
:10093000C8050020CC3B0000000000209507000007
:10094000D8050020C405002070B50B4C01460B48AB
:100950002678FFF709FF05460EB9284670BD00232B
:10096000074808492370012200F016FB0028F4D044
:10097000FFF78EFE284670BDD8050020DC0500205C
:1009800000000020C405002010B501460C48FFF708
:10099000D3FE044608B1204610BD0A4800F0F0FA24
:1009A0000028F8D106480849FFF7DEFE0028F2D1FA
:1009B000044805490122BDE8104000F027BA00BFF5
:1009C000C805002000000020BC05002072B6024AC5
:1009D0001368013313607047EC050020034A136865
:1009E000013B136003B962B6704700BFEC050020FD
:1009F00070B504460020FFF7E9FF236861681A68B4
:100A00008A4215D9511E19602168A3680D680879BA
:100A100012F8016C228AE4685B1BDBB2984206FB89
:100A2000024400D20B710020FFF7D8FF204670BDB2
:100A300000240020FFF7D2FF204670BD38B50546E0
:100A400000200C46FFF7C2FF2A681368591C11608A
:100A5000E9682A8A641AB4FBF2F41C700020BDE82D
:100A60003840FFF7BBBF00BF2DE9F041B0F8108060
:100A7000A8F104084144CF1C0646FFF7B9FFB7FBB5
:100A8000F8F7044678B3FFB200250123013FA0F830
:100A9000068006600571437128D0804609E06379BD
:100AA000AF4203F101036371C8F80000066080469D
:100AB0001CD03046FFF79CFF01350028EFD1667946
:100AC000721E234603D0013082421B68FBD81F6888
:100AD0004EB1002523682146013538461C46FFF7F4
:100AE000ADFFAE42F6D10020BDE8F0812046BDE862
:100AF000F08100BF10B40430012350E8002F02EB56
:100B0000030140E8001494F0000FF6D15DF8044BA7
:100B1000704700BF0146021DF8B5012052E8004FA2
:100B2000A4EB000342E8003595F0000FF6D113F076
:100B3000FF0300D0F8BD4E79701E0A4603D0013382
:100B400098421268FBD81768002EF3D000240D6875
:100B500001343846FFF772FFA6422946F7D1F8BDA7
:100B60002DE9F0410446181DE688B0FBF6F30F4668
:100B7000154606FB130013B1013B2468FCD1321A61
:100B8000AA4228BF2A468DB14FF000082044AD1A72
:100B900007EB08010430904401F036FBB5422A46C9
:100BA000246828BF32460020002DEFD1BDE8F08137
:100BB00070B5161E07DD0C468D1914F8010BFFF7F2
:100BC000E3FEAC42F9D1304670BD00BF10B50C4613
:100BD0002046FFF7B9FE0528FAD0012010BD00BF5E
:100BE000002810B418DB00F1604303F561434901AC
:100BF000C9B283F80013C3B24009800000F160401D
:100C000000F5614003F01F0201239340C0F88031DA
:100C100003605DF8044B7047C3B2044A03F00F044D
:100C200049012244C9B21176E6E700BFFCEC00E0BE
:100C3000F0B50479724E6401331987B0DD7E183344
:100C400015B1082007B0F0BD4D7F1D710D686B1CFC
:100C50000BD04FF0A0470123AB40C7F808350B6815
:100C600003F5E073032547F823504B685F1C06D05B
:100C700003F5E0734FF0A045002745F82370037992
:100C800006EB43131B7F002B4DD003688D69C3F81F
:100C900024550F7D4B7D05683B43C5F86C350368D3
:100CA0000F684D68C3F80C75C3F814550B7D012B04
:100CB00000F09B80331905465A600B695048335148
:100CC000EAB12B79097F2A6800EB4310037F002BE0
:100CD00065D1C2F81C31D2F81C712A680197019FB6
:100CE000C2F84431D2F844212B6846480092009A59
:100CF000C3F80403286840F30730FFF771FF2B792E
:100D00002A6806EB43131B7F002B44D00823C2F84C
:100D10000035344400200121E075A0752076A076CE
:100D2000E17607B0F0BD05688F69C5F8247591F8C4
:100D300014E04D7D07684EEA0505C7F86C55056857
:100D4000D1F800E04F68C5F81475C5F80CE50D7DC5
:100D5000012DAFD18D686F1C05D005F5E0754FF002
:100D6000A04747F82530CB685D1C0DD001254FF01A
:100D7000A04705FA03F3C7F80835CB6803F5E0731D
:100D8000032547F82350CB6805688F68C5F80835F8
:100D9000C5F810758EE70423C2F80035B9E70023C3
:100DA000C2F81031D2F810712A680597059FC2F871
:100DB0002031D2F820712A680497049FC2F82431A8
:100DC000D2F824712A680397039FC2F84431D2F8FD
:100DD00044212B6802920C48029AC3F80403286845
:100DE00040F30730FFF7FCFE89E78B685D1CBAD043
:100DF00003F5E0734FF0A045002745F82370B2E7F4
:100E0000F005002080000200100302002DE9F041EF
:100E100003795A4D5B01EC1886B0247F44B101F090
:100E20006044B4F1005F03D0102006B0BDE8F0814B
:100E30002B44DFF848E19F7D1FB1112006B0BDE8CB
:100E4000F08199609A759F82067976010EEB060112
:100E50000B7F2BBB0268C2F81C31D2F81C41026820
:100E600005940124059F94600468D1F808C0C4F873
:100E70001C31D4F81C310493049B8F8A8B8AD1F8DF
:100E800004E0BFB201331CF807709BB28B82C4F838
:100E90001C75BEF1000F33D0002006B0BDE8F08114
:100EA00003688A68C3F82071D3F82041036802946C
:100EB000029CC3F85871D3F85841036801948C7DA3
:100EC000019FC3F84425C3F84845036801229A608E
:100ED0004B68002BE0D1026801E0002B4CD1D2F826
:100EE0002011D2F85831003318BF01230029F4D063
:100EF000002B0CBF00200F20AB1900229A7594E73D
:100F00008F7D8B8A01F110029BB2BB4226D204680E
:100F100004E093889BB2B3F5807F05D0D4F81C31F0
:100F200001F11002002BF4D001F1100293889BB262
:100F3000B3F5807FE5D0C4F81CE1D4F81C310393ED
:100F4000039BB2F8048093881FFA88F801331CF8D9
:100F500008809BB29380C4F81C85D2E793889BB22B
:100F6000B3F5807F08D00268D2F81C31002BFBD08B
:100F70000123D3600020BFE70F20BDE7F00500206C
:100F80000279044B03EB4213987D003018BF012017
:100F9000704700BFF0050020F0B50379924C5B016B
:100FA000E51889B02E7F3EB101F06046B6F1005FD2
:100FB00052D0102009B0F0BD6F6827B105684FF41A
:100FC0000176C5F80863234403F11006F579DFF8CC
:100FD00018E255BBF271D9601D765D76067976010F
:100FE000A31918331F79002F47D19B788BB985B986
:100FF0000368C3F82451D3F8242103680492049AA7
:10100000C3F80851D3F80821036803920122039919
:101010001A60A5196B68002B64D003684FF4017245
:101020000020C3F8042309B0F0BD1D7E85B1002F58
:1010300000F0AC8003790EEB431E9EF81C30002BB1
:1010400049D003684FF40472C3F804231120B1E7B8
:1010500019611A760125C1E76F68002FB3D00568C2
:10106000DFF884E14FF404762344C5F8086303F104
:101070001006F579002DADD0D7E703680026C3F838
:101080001061D3F8107103680297029FC3F844619E
:10109000D3F8446103680196019EC3F83415C3F880
:1010A000382585B9036801221A6005796D01631935
:1010B0005B68002B6CD003684FF404720020C3F807
:1010C000042309B0F0BD0268D2F8003243F02003D7
:1010D000C2F80032E9E703684FF40172C3F8042351
:1010E000112067E70268C2F84431D2F84431059311
:1010F000059B0168D1F82421D1F80871D1F8443159
:10110000003218BF0122003318BF012347B9002B5A
:1011100035D1002AEED0A3190022DA75032049E761
:10112000002AF8D16BBBEA7D02B3C1F80831D1F8CF
:1011300008310693069A6F7EEA68D1F81815D155E2
:101140006A7E0132D2B26A7605F1180305F1100207
:101150005978D7798F42CCD89B780021D171002B58
:101160003CD00368012208461A6023E7C1F8082131
:10117000D1F808310793079BD1F81835E4E7002A26
:10118000C9D1A3190022DA750F2013E7112011E746
:10119000016801E0D3B9EAB9D1F81061D1F844315E
:1011A000D1F82421003318BF0123003218BF0122D7
:1011B000002EEFD0002A4FF000012C4414BF032072
:1011C00008468B42E17518BF0F20F3E62C440F2030
:1011D000E675EFE62C440320E375EBE60268012197
:1011E00018465160E6E600BFF0050020114A037979
:1011F00002EB431318331979D9B99B78CBB910B4E2
:10120000016883B0C1F82431D1F824410168019408
:10121000019CC1F80831D1F808310168009301231D
:10122000009C0B60017902EB4112937603B05DF8EC
:10123000044B7047F0050020F0B59B4C237F8FB026
:10124000002B75D1994AD2F80413890548D4974BDD
:10125000D3F80423520704D5D3F80821002A40F01C
:10126000CA80924BD3F81C21C2B1A28AA07D8E49BC
:1012700092B282424FF00002C3F81C2180F0A98094
:10128000D3F81C210692069A888A8A8A8D6880B2D1
:101290000132285C92B28A82C3F81C05834BD3F8D2
:1012A0004421DAB10022C3F84421D3F84411A27ECC
:1012B00004910499002A40F08980E27D7A4B6AB15A
:1012C0000022587ED968DA7501228DF830000B9122
:1012D0008DF828200AA893E8060090470FB0F0BDCB
:1012E000D2F824110029B2D0C2F82431D2F8241146
:1012F000A37E07914FF401710798C2F808130BB948
:1013000001235360694A02238DF82830D2F88034D3
:10131000C2F88034E07DE2680D9300238DF8300040
:10132000E375237621680B9263680AA8984798E7CB
:101330005E4BD3F82421002A40F09380D3F810119B
:1013400061B1C3F81021D3F8101103910399D3F8B8
:101350003C15E07DC9B2884200F0AA80534BD3F817
:101360004421B2B10022C3F84421D3F84411E07DF6
:10137000019101994C4960B1D3F83C35C8688DF8AA
:1013800030300123CA750B908DF828300AA80AC99D
:101390009847464BD3F82021002A9FD00022C3F85B
:1013A0002021D3F82011A07D009100993E4900280A
:1013B00094D0D3F84C058B688DF830008A750B9368
:1013C0008DF828200AC90AA8984787E701221A60E1
:1013D00073E7D3F81C310593059B00283FF45EAFFB
:1013E0008B688DF830008A750B938DF828200AC918
:1013F0000AA8984752E7E17D2B4A002970D00021C6
:10140000C3F80811D3F8081108910899D068517EE3
:10141000D3F818354354537ED17D0133DBB2537674
:10142000627E214B8A427FF41CAF1A7E002A6DD166
:101430009B7E13B91D4B01225A601C4AE068636809
:101440004FF40171C2F80813627E8DF83020002538
:1014500001220B902168E5758DF828200AA898478D
:10146000FFE60022C3F82421D3F8241102910221BF
:101470008DF828100299D3F88014C3F880140D91C8
:10148000D3F83C15E368E27522768DF830100B93A3
:10149000216863680AA89847044BD3F84421002ABE
:1014A0003FF477AF5EE700BFF0050020002000406A
:1014B000217EF1B1D3F80072E17527F02001E668D2
:1014C0002569C3F8001201238DF830008DF828300B
:1014D000227621680B96E56063680AA898473DE785
:1014E000C3F80811D3F808210992099AD3F81835DE
:1014F00096E7E268E17501238DF830008DF8283019
:101500000B9294E80A000AA8984727E7DE685D7EF8
:101510001869DA7501210022D8601A765A768DF89A
:1015200028100B968DF8305093E806000AA89047D3
:1015300097E600BF0378022B02D0012B00D0704742
:101540004068FFF7A5B800BF08B52F4800F070FE4F
:101550002E4B1B78012B3DD038D3022B2BD02C4B9C
:101560001B78EC2B2ED00AD9F42B49D03ED9F82B7E
:1015700038D0FC2B0BD1274800F05AFE07E0042B93
:101580003AD0D82B2AD013B9234800F051FE234B70
:101590002348196800F04CFE224B2348196800F0DC
:1015A00047FE224B2248196800F042FE2148BDE860
:1015B000084000F03DBE204800F03AFE144B1B7876
:1015C000EC2BD0D11D4800F033FEE0E71C4800F0C2
:1015D0002FFEC4E71B4800F02BFEC0E71A4800F0BE
:1015E00027FED4E7194800F023FED0E7F02BCED138
:1015F000174800F01DFECAE7164800F019FEC6E7BE
:10160000154800F015FEC2E7A43C000010000020C1
:1016100015080020603D0000403D0000100600203D
:10162000203E00000C0000203C3E0000080000208E
:10163000583E0000743E0000B43C0000E03D000055
:10164000D83C0000FC3C0000003E0000803D000053
:10165000C03D0000203D0000A03D00004FF0804351
:10166000B249012200200A60C3F8000119461A603D
:10167000D1F80031002BFBD02DE9F04FAC4DAD4B34
:10168000AD4E8FB008AC04930FCD0FC495E80300A6
:10169000012384E80300A94A059304A906234FF413
:1016A000007408A806960794FFF7D8F84FF0A043F7
:1016B0000C22C3F8142708B1FEF7EAFFA04800F097
:1016C000B7FDA04B4FF480721A6062B600279E4CA3
:1016D0009E4EDFF89882DFF8F492DFF8F4B2DFF87C
:1016E00098A23D469A480DF10F0100F0B9FD9DF812
:1016F0000F30613B172B7BD8DFE813F02F001A0067
:10170000B00041000C017A007A00E4007A007A000F
:101710007A007A0013017A009D00C3007A008C00E1
:10172000780064007A007A007A00530000F080FDAF
:10173000884800F07DFD8549874800F091FD3168BB
:1017400086485029F2DC2368002BEFDB844800F048
:101750006FFD3D464CE000F06BFD824800F068FDF7
:1017600079497D4800F07CFD21687C485029F2D8F9
:101770007B4800F05DFD3D463AE000F059FD7A48B7
:1017800000F056FD7949744800F06AFDD8F8001061
:1017900077484B1E622BF0D8714800F049FD3D465A
:1017A00026E0744800F044FD9AF80030724D002B9A
:1017B00040F0528199F80000217800F00BFA0427DC
:1017C00000258FE76D4800F033FD98F8005033781E
:1017D00022789BF80000009599F8001000F018FAA4
:1017E00001238AF80030032700257BE7FFF7ACFED2
:1017F0006B1E042B3FF676AF01A252F823F000BF18
:10180000631800003D180000CB170000A917000066
:101810001B1800005A4800F00BFD98F8003099F8AA
:1018200000002178327800F037FA01238AF800307E
:101830000527002556E7534800F0FAFC9AF80030D7
:101840004D4D002B40F00D819BF8000099F80010E1
:10185000227800F051F90227002543E74A4800F0BA
:10186000E7FC9AF80030444D002B40F0F0809BF8E4
:10187000000099F80010227800F01EF901270025D9
:1018800030E7424800F0D4FC01E0FFF77DF8304833
:1018900004A900F0E5FC9DF81030A3F13002072AFE
:1018A0004FF00700F1D81846FFF76EF89DF810309A
:1018B000303B062B00F2DE80DFE803F0B9B5B1C1A2
:1018C000BDC5AD00324800F0B3FC324800F0B0FCBA
:1018D000314800F0ADFC314800F0AAFC304800F07F
:1018E000A7FC304800F0A4FC2F4800F0A1FC2F48D2
:1018F00000F09EFC2E4800F09BFC2E4800F098FC67
:101900002D4800F095FC2D4800F092FC2C4800F08A
:101910008FFC6DE72B4800F08BFC002700F0B4F83B
:1019200066E7294800F084FC56E000BF00D0004084
:10193000FC3B0000180800201406002035150000AC
:101940007C3E000000E100E0100600200C000020BA
:10195000583C0000F03E0000C03E0000CC3E0000BD
:10196000C43E0000883E0000343F00000800002014
:10197000683F0000D03F000014080020C43F000072
:10198000B83F0000A03F0000243F0000643C00007E
:10199000E83F0000F43F00003440000058400000E1
:1019A000704000009C400000B8400000D0400000A3
:1019B000F040000008410000384100004C410000A8
:1019C000604100008C3F0000143C0000100000202B
:1019D0001508002000F02CFC04A9284800F040FC69
:1019E0009DF810302648A3F13002022A4FF007017B
:1019F000F0D8194600F01CFC9DF81030312B35D082
:101A0000302B0CBF0223012389F800301D4800F061
:101A10000FFC3D46ECE6EC238BF80030F6E7FC23A8
:101A20008BF80030F2E700238BF80030EEE7042358
:101A30008BF80030EAE7F4238BF80030E6E7F82370
:101A40008BF80030E2E7F0238BF80030DEE700F09F
:101A50001BF800232B700AE700F016F800232B7008
:101A6000A8E600F011F800232B70EDE6002389F8BA
:101A70000030CBE7D8238BF80030C7E7583C000094
:101A80005C3C000098400000094B0A4901220020FC
:101A90004A60C3F800021946C3F810011A61D1F870
:101AA0001031034A002BFAD00023C2F810317047DE
:101AB00000100040008000400E4B70B4002401264E
:101AC000C3F800421D46C3F810411E61D5F810311D
:101AD000084C002BFAD000250123C4F81051C4F89B
:101AE0000032C4F80C05C4F81015C4F808252360AA
:101AF00070BC704700100040324B2DE9F0410024CB
:101B00000126C3F800421D46C3F810411E61D5F8F6
:101B100010312C4C002BFAD02B4B0026C4F810614E
:101B20001D46C3F80061D5F80031274C002BFAD0D0
:101B3000244BD4F80855C3F824550023A6461F4665
:101B400004261D02C4F80071D4F80031002BFBD02C
:101B5000DEF80835013E16F0FF0643EA0503F0D132
:101B6000DFF868C0174DDFF868E0C5F81C35674638
:101B7000154C4FF00808FE23C5F81485C5F818E584
:101B8000C5F8346507F8FE3B6546A646C4F8006113
:101B9000D4F80031002BFBD0DEF8083505F8013F02
:101BA000BD42F3D1074B07250124C3F804C5C3F890
:101BB0000052C3F80C05C3F81015C3F808251C60C3
:101BC000BDE8F0810010004000D000402008002057
:101BD000FF0004030D4B10B400220124C3F80022BF
:101BE0001846C3F810211C61D0F81031074A002BA9
:101BF000FAD001230020C2F81001C2F80032C2F866
:101C0000081553605DF8044B704700BF001000409A
:101C10002DE9F04F194E9DF82450DFF86C9030708C
:101C2000174CDFF86880DFF868C0DFF868E0154F10
:101C300089F800204FF47A76012006FB05F54FF075
:101C4000000B4FF0020A04264FF4803988F8002078
:101C50008CF800108EF8003038706060C4F8000214
:101C6000C4F804B5C4F808A5C4F81065C4F8049312
:101C7000C4F840552060BDE8F08F00BF2009002067
:101C8000008000401C080020190800201D080020CA
:101C90001B0800201A0800202DE9F047164D174CAC
:101CA0002870DFF86080DFF860C0DFF860E0144F74
:101CB00088F800104FF47A750120002605FB03F325
:101CC0004FF0020A4FF004094FF480358CF80010F1
:101CD0008EF800203E706060C4F80002C4F804650D
:101CE000C4F808A5C4F81095C4F80453C4F84035E6
:101CF0002060BDE8F08700BF1B0800200080004086
:101D00001C080020190800201D0800201A080020C7
:101D1000F0B4284B1B78002B32D0274A274B284998
:101D2000284C15780E78207800220127C3F800226D
:101D30001946C3F810211F61D1F810311F4A002B3A
:101D4000FAD000210123C2F81011C2F80032C2F803
:101D50000C65C2F81055C2F80805136021781A4BBB
:101D600018481A784B1CDBB29A42237002D2174BE8
:101D70001B780370164B0022C3F84021F0BC70475B
:101D80000E4A104C01252178C2F800321046C2F8E4
:101D900010311561D0F81031084A002BFAD0012318
:101DA0000020C2F81001C2F80032C2F808155360D2
:101DB000D5E700BF1C0800201B08002000100040D1
:101DC000200900201D0800201A0800201908002002
:101DD000008000400649074A074B9B1A03DD043B7D
:101DE000C858D050FBDC00F013F8FEF737FA0000BB
:101DF0006043000000000020B0000020FEE7FEE786
:101E0000FEE7FEE7FEE7FEE7FEE7FEE7FEE7FEE7AA
:101E1000F0B4AF4B1B78062B1BD0AE4AD2F88830FB
:101E200043F47003C2F88830BFF34F8FBFF36F8F56
:101E30004FF01023D3F80022002AC0F27381D3F8A8
:101E40000432002BC0F26E81A34BA44A1A60F0BC8E
:101E50007047A34B1B681907DFD1A24B1B6803F027
:101E6000F002302A00F08E8003F0E003402B00F0F7
:101E700089809C4B1B6803F0F003302B00F09280AC
:101E8000984B1B6803F0F002302A6BD003F0E0039C
:101E9000402B67D0934B1B6803F0F003302B00F00E
:101EA0000681904B1B6803F0F002302A47D003F004
:101EB000E003402B43D08B4B1B6803F0F003302B27
:101EC00000F0E780874B1B6803F0F003302B77D0DE
:101ED000844B1B6803F0F003502B00F08880814B8B
:101EE0001B6803F0F002302A18D003F0E003402B07
:101EF00014D07C4B1B6803F0F002302A03D003F0AF
:101F0000E003402B89D14FF08042D2F80034DB0748
:101F100083D56FF00103C2F800347EE7724B734A39
:101F20001B6803F04F031360694B1B78062B7FF48B
:101F300074AF6B4B1B6819077FF46FAFD9E74FF095
:101F400080430022C3F80C21C3F81021C3F83825C0
:101F50005F4B1B78062BE7D1614B1B681E077FF494
:101F60005CAFA8E7624B5A4A1B6812786149C3F319
:101F70004233062A0B602FD1594B1B681B077FF495
:101F80004CAF87E75C4B524A1B6812785B49C3F33E
:101F90000423062A0B60DBD1514B1B681A073FF460
:101FA00068AF3AE74A4B564A1B7856491160062BF0
:101FB0007FF433AF4A4B1B681A077FF42EAF5FE7FD
:101FC000514E524C5249534B0527012500203F22C8
:101FD0003760256008601A603D4B1B78062B7FF444
:101FE0001CAF3F4B1B681C077FF417AF70E74FF027
:101FF0008052494BD2F80414C3F82015D2F80814C3
:10200000C3F82415D2F80C14C3F82815D2F810140C
:10201000C3F82C15D2F81414C3F83015D2F81814DC
:10202000C3F83415D2F81C14C3F84015D2F82014A4
:10203000C3F84415D2F82414C3F84815D2F828146C
:10204000C3F84C15D2F82C14C3F85015D2F830143C
:10205000C3F85415D2F83414C3F86015D2F8381404
:10206000C3F86415D2F83C14C3F86815D2F84014CC
:10207000C3F86C151649D2F84424C3F870250B78C0
:10208000062B7FF4CAAE164B1B6818077FF4C5AE4B
:1020900025E70F4B214A1B780321062B11607FF4A3
:1020A000BCAE0F4B1B681D077FF4B7AE0AE71C4997
:1020B000074BCA681B7822F08072062BCA607FF437
:1020C000ACAE074B1B681F077FF4A7AEE9E600BF65
:1020D000E00F00F000ED00E0140000200090D003BD
:1020E000E40F00F0E80F00F058020010E40E00408A
:1020F000440200103C05004024030010403501401C
:1021000074C007400DF0ADBA10560040885600402C
:10211000185600401456004000C00040A005004082
:10212000F0ED00E0184B0122C3F80425D3F8002499
:10213000002AFBD04FF0102315221349C3F80022C8
:10214000D1F80034002BFBD04FF0102315220E499C
:10215000C3F80422D1F800240B4B002AFAD0002245
:10216000C3F80425D3F80024002AFBD0BFF34F8F17
:102170000649074BCA6802F4E0621343CB60BFF321
:102180004F8F00BFFDE700BF00E0014000ED00E021
:102190000400FA0508B5074B044613B10021AFF35C
:1021A0000080054B1868836A03B19847204601F008
:1021B000E5FC00BF000000007C41000070B50E4B44
:1021C0000E4CE41AA41000251E46A54204D056F871
:1021D000253098470135F8E701F0D2FC084C094B4F
:1021E000E41AA41000251E46A54204D056F8253056
:1021F00098470135F8E770BD80000020800000207E
:10220000840000208000002010B5431E0A44914243
:1022100004D011F8014B03F8014FF8E710BD024458
:102220000346934202D003F8011BFAE7704700000F
:102230000FB40A4B13B51C6824B1A36913B9204627
:1022400000F066F805AB2046A168049A019300F0FF
:1022500081F902B0BDE8104004B07047780000205A
:102260000FB40A4B13B51C6824B1A36913B92046F7
:1022700000F04EF805AB20466168049A019300F027
:1022800055FD02B0BDE8104004B070477800002052
:10229000014900F0C3B800BF79380000002310B531
:1022A000044603604360836081814366C2810361A9
:1022B0004361836119465C300822FFF7B0FF054B8C
:1022C0006362054BA362054BE362054B2462236303
:1022D00010BD00BFC5310000E73100001F32000013
:1022E0004332000070B568234D1E5D430E4605F174
:1022F000740100F0B1F8044640B1002180E84200CA
:102300000C30A06005F16802FFF789FF204670BD20
:10231000836910B5044633BB8364C3640365124B01
:10232000124A1B688262984204BF0123836100F055
:102330001FF86060204600F01BF8A060204600F007
:1023400017F80421E06000226068FFF7A7FFA0688B
:1023500009210122FFF7A2FFE06812210222FFF704
:102360009DFF0123A36110BD7C410000912200006C
:10237000F8B51B4B1E68B369074613B93046FFF723
:10238000C7FF4836B4687368013B04D4B4F90C50F5
:1023900075B16834F8E733682BB938460421FFF784
:1023A000A1FF306008B13668ECE70C233B60F8BD54
:1023B0004FF6FF73E3810123A38165662560A56065
:1023C000656025616561A56104F15C00294608220C
:1023D000FFF725FF6563A563A564E5642046F8BDA6
:1023E0007C4100002DE9F041884600F148040026B8
:1023F0008CB1A5686768013F0BD4AB89012B06D966
:10240000B5F90E30013302D02846C047064368357F
:10241000F1E72468ECE73046BDE8F0812DE9F843A8
:102420008046894600F14804002694B1A568676893
:10243000013F0CD4AB89012B07D9B5F90E3001331C
:1024400003D040462946C84706436835F0E724686C
:10245000EBE73046BDE8F88370B5CC1C24F00304EC
:1024600008340C2C38BF0C24002C064603DA0C234D
:102470003360002070BD8C42F9D3204A13681046A7
:102480001946A1B10A68121B0ED40B2A03D90A609F
:102490008B188C501FE08B420DBF5A684A685A60F7
:1024A000026018BF0B4616E00B464968E9E7144D79
:1024B0002B681BB9304600F043FE286030462146A9
:1024C00000F03EFE421C0346D1D0C51C25F003059A
:1024D00085420AD11C6003F10B001A1D20F0070091
:1024E000821A0AD05142995070BD3046E91A00F064
:1024F00027FE0130BBD02B46ECE770BD2809002039
:10250000240900209368013B002B10B5936009DA81
:102510009469A34202DBCBB20A2B03D1BDE8104081
:1025200001F044B81368581C10601970C8B210BD8F
:10253000F8B506460F461446D518AC4208D03046CA
:1025400014F8011B3A46FFF7DDFF431CF5D100E00C
:102550000020F8BD2DE9F0439DB00D469046039351
:10256000064618B183690BB9FFF7D2FE754B9D4241
:1025700001D1756808E0744B9D4201D1B56803E054
:10258000724B9D4208BFF568AB891C070AD52B69C1
:1025900043B10023099320238DF8293030238DF88F
:1025A0002A3041E03046294601F066F80028F0D094
:1025B0004FF0FF30C2E0039A111D12680391002A08
:1025C000BBBF524243F0020307920792B8BF049385
:1025D000013423782E2B7BD0DFF880812178404690
:1025E000032201F0E5F938B1049AC8EB000040235A
:1025F0008340134304930134217855488DF8281003
:10260000062204F1010801F0D3F9002800F08580CA
:10261000504B002B78D1039B073323F0070308337B
:102620000393099B3B44099343461C4613F8012B33
:102630001AB9B4EB08090ED002E0252AF5D1F8E763
:102640003046294642464B46FFF772FF013070D0B4
:10265000099B4B4409932378002B6AD000234FF049
:10266000FF3204930793059206938DF853301A9323
:1026700004F101084446DFF8E89021784846052235
:1026800001F096F908F10108049B30B1C9EB000094
:102690000122824013430493ECE7D80644BF202272
:1026A0008DF85320190744BF2B228DF85320227830
:1026B0002A2A80D0079923461C4601332278303AD3
:1026C000092A03D80A2000FB0121F5E7079180E7DA
:1026D00063782A2B0AD1039B1A1D1B680392002BD7
:1026E000B8BF4FF0FF330234059375E7611C002239
:1026F0000C4601312378303B092B03D80A2000FB1C
:102700000232F5E7059267E703AB0093304604A970
:102710002A46114BAFF3008007E003AB009330462D
:1027200004A92A460C4B00F093F8421C07467FF49C
:1027300078AFAB895B063FF53BAF09981DB0BDE8AC
:10274000F08300BF80410000A0410000C0410000B4
:10275000EA4100000000000031250000E6410000D1
:10276000E04100002DE9F84391461F468A680B6955
:10277000DDF820809342B8BF1346C9F8003091F8C5
:10278000432006460C4612B10133C9F800302368D5
:10279000990642BFD9F800300233C9F800302568E5
:1027A00015F006051CD094F843302268003318BF9A
:1027B000012392061FD5E1185A1C302081F84300EE
:1027C000224494F8451082F84310023313E0304657
:1027D000394604F119020123C047013007D0013501
:1027E000E368D9F800209B1A9D42F0DBDBE74FF04D
:1027F000FF30BDE8F8833046394604F14302C04754
:102800000130F4D02268D9F80050E36802F00602E3
:10281000042A08BF5D1B2269A3680CBF25EAE57581
:1028200000259342C4BF9B1AED184FF00009A9453B
:102830000ADA3046394604F11A020123C047013052
:10284000D5D009F10109F2E70020BDE8F8830000C6
:102850002DE9FF410C461746227E6E2A9846064611
:102860000A9B01F1430100F0AF8012D8632A23D004
:102870000AD8002A00F0BC80582A40F0CB8084F8A7
:102880004520DFF804E257E0642A1ED0692A1CD0F4
:10289000C0E0732A00F0B08009D86F2A2ED0702AC9
:1028A00040F0B880226842F0200222603FE0752AA2
:1028B00024D0782A3BD0ADE01A68111D1960136846
:1028C00084F8423004F14205A8E020681A6810F04C
:1028D000800F02D0101D186008E010F0400F02F1C8
:1028E0000400186002D0B2F9003000E01368002B39
:1028F0003EDA2D225B4284F8432039E020681A68D2
:1029000010F0800F02D0101D186007E010F0400F8B
:1029100002F10400186001D0138800E01368227EE1
:10292000DFF864E16F2A0CBF08220A221CE078223B
:10293000DFF858E184F845202268186812F0800F0B
:1029400000F104051D6003D1550601D5038800E0A0
:102950000368D00744BF42F0200222601BB92268FE
:1029600022F0200222601022002084F8430002E0BE
:10297000DFF814E10A226568A560002DA2BF206877
:1029800020F00400206003B965B10D46B3FBF2F0FE
:1029900002FB10331EF8033005F8013D0346002802
:1029A000F4D100E00D46082A0BD12368DA0708D5D8
:1029B000236962689A42DEBF302305F8013C05F1C5
:1029C000FF35491B21612EE025681A68606915F002
:1029D000800F03D0151D1D60136808E015F0400F2F
:1029E00002F104051D60136801D0188000E0186032
:1029F000002323610D4616E01A68111D1960156841
:102A000062682846002100F0D3FF08B1401B6060D7
:102A1000636804E004F1420584F842200123236145
:102A2000002384F84330CDF800803046214603AAC5
:102A30003B46FFF797FE013002D14FF0FF301FE019
:102A4000304639462A462369C0470130F5D023680D
:102A50009B0705D4E068039B9842B8BF18460FE077
:102A60000025E368039A9B1A9D42F3DA3046394603
:102A700004F119020123C0470130DED00135F0E72F
:102A800004B0BDE8F08100BFF14100000242000047
:102A90002DE9F047ADF5247D0DF10C0A01930023DB
:102AA000469347939C4BA2939C4BCDF820A107469D
:102AB0000C469046A39398F80050002D00F0248116
:102AC00097490B682B4489465B7803F0080303F0B1
:102AD000FF02EBB16368002B10DD2368D9F800100A
:102AE0001A780A44527815070ED5479A0132479250
:102AF00062680133013A62602360EBE7A39B3846CA
:102B0000214698470028E8D008F10106B046D2E7F0
:102B1000252D08F101064FD14592439298F80130D6
:102B20002A2B03D11023439308F102063178A1F137
:102B30003003092B354606F1010606D8459B0A22CB
:102B400002FB0313303B4593F0E7DFF8DC810322FF
:102B5000404600F02DFF40B10123C8EB000003FA0E
:102B600000F2439B1343439335466E1C2D78672D2B
:102B70000FD8652D78D25B2D54D005D8002D00F0EC
:102B8000C580252D18D071E0632D57D0642D3FD01E
:102B90006CE0702D32D007D86E2D55D03AD8692D03
:102BA00064D1002344933BE0752D31D0782D29D09A
:102BB000732D5BD102233FE06368002B0DDD23689A
:102BC0001A78AA4240F0A080013362682360479BD4
:102BD000013A01336260479398E7A39B3846214648
:102BE00098470028EBD04698002800F08F80A389F2
:102BF00013F0400F18BF4FF0FF3089E0439B43F0C4
:102C000020034393439B43F400734393102302E058
:102C10000A2300E008236E2D449301DD04230BE01A
:102C2000032309E03146504600F09AFA439B43F0F3
:102C3000400343930646012349931BE0439B43F023
:102C4000400343930023F7E7439AD0063FF55EAF76
:102C500012F0010F019A479B02F1040101911268E1
:102C600014BF1380136051E70523E5E7032349935D
:102C70000A2344936368002B03DD439B590611D557
:102C800018E0A39B3846214698470028F5D0AAE7CC
:102C9000479A013247926268013A002A626013DD66
:102CA000013323602368D9F800101A780A44527857
:102CB0001207EDD4499B022B0DDC384643A922466E
:102CC00001AB00F05BF819E0A39B3846214698471A
:102CD0000028E7D087E7042B06DC384643A92246C4
:102CE00001AB00F0ABF809E00E4B002B3FF40EAF48
:102CF000384643A9224601ABAFF30080012803D038
:102D000002287FF403AF6EE7469801E04FF0FF30F2
:102D10000DF5247DBDE8F087C93400003530000092
:102D20007C00002000000000E64100002DE9F04199
:102D30000C4617461E46054618B183690BB9FFF7C6
:102D4000E7FA0B4B9C4201D16C6808E0094B9C42AE
:102D500001D1AC6803E0084B9C4208BFEC682846F0
:102D600021463A463346BDE8F041FFF791BE00BF29
:102D700080410000A0410000C04100002DE9F04169
:102D800015468A6880460C4632B98A69002A0CBF0B
:102D900001224FF0FF328A602268D1065FBF1A68B5
:102DA000111D196017680026A06900BB2368DA06A8
:102DB0005EBF2B681B783B702A686B6802F10102CA
:102DC0002A60A26803F1FF3302F1FF326B6006F163
:102DD000010658BF0137A260EAB1002BE4DCD4F849
:102DE00080314046294698470028DDD013E001286D
:102DF00007D12B6862691B78D35C002BD6D1C6B192
:102E000009E0022807D12B680B4A1B78126813448B
:102E10005B781B07CAD5236813F0100305D1E2685D
:102E20000132E260A26902B13B7023691E4426614F
:102E30000020BDE8F08100BF7C0000202DE9F04FAC
:102E40009A46734B0C468346164693E8070087B0B4
:102E500003AB83E807006F4BA1696F4A032918BFD2
:102E60001A46A36800925A1EB2F5AE7F81BF6FF476
:102E7000AE7503EB050840F25D13A360236804F10F
:102E80001C0943F45063236098BF4FF000084F467D
:102E900000233268019303A951F82300117802221C
:102EA00000F086FD019B002836D0012B0BD1626813
:102EB0002AB908226260226842F400722260226805
:102EC00022F4A0620BE0022B0AD1226802F4C06156
:102ED000B1F5007F20D11021616042F48072226040
:102EE000A268511EA160BAB13268511C31601278DB
:102EF0003A707268013A002A07F1010572600ADC33
:102F0000D4F880210193584631469047002840D19B
:102F10002F46019B00E02F460133032BB9D1636894
:102F20000BB90A23636063683C496069C91A00F001
:102F300017F93D460027A36863B3316860690A78D2
:102F4000805C38B3302A22680AD1100508D50137D1
:102F5000B8F1000F0AD0013308F1FF38A36005E093
:102F600022F4106222600B782B7001357368013BEC
:102F7000002B736003DD33680133336005E0D4F860
:102F8000803158463146984720B9A368013BA36079
:102F9000D1E700272368D9050DD54D4509D915F886
:102FA000011CD4F87C3158463246984705F1FF3869
:102FB00045464D4527D0226812F010021BD12A70D9
:102FC0006368009E58464946B0472268DAF80030E8
:102FD00012F0200F07D1D20705D51A1DCAF800201C
:102FE0001B68188004E01A1DCAF800201B681860CE
:102FF000E3680133E360C9EB05053D4427693D44BF
:103000002561002000E0012007B0BDE8F08F00BF7F
:1030100014420000593300004D32000030420000DD
:10302000838903F00903092B01D100F04FBC002074
:1030300070470000F8B50C46054618B183690BB916
:10304000FFF766F9394B9C4201D16C6808E0384BB8
:103050009C4201D1AC6803E0364B9C4208BFEC684F
:10306000A2890023636093B29E065AD458071AD4EB
:10307000D90605D4092342F040022B60A28150E01A
:103080001A070BD52846214600F0F6FB002848D148
:10309000A389A06023F00803A381A061A38943F062
:1030A0000403A38110E0616B71B104F14403994200
:1030B00002D0284600F08CFC236C63600020606323
:1030C00013B1E36B2360F8BD23691BB92846214681
:1030D00000F020FCA789BEB2B3070FD00123A38163
:1030E000154B1649186806F00906FFF77BF9092EFB
:1030F000A78103D12846214600F03AFB22692260CD
:10310000666A216A63692846B047002860600BDC64
:10311000A38917BF002243F0200343F040036260FD
:10312000A3814FF0FF30F8BD0020F8BD80410000C2
:10313000A0410000C04100007C410000213000009F
:1031400038B5064C002305460846236000F008FD0C
:10315000431C02D1236803B12B6038BD3009002025
:10316000F0B50A785E2A13BF4B1C8B1C4A780021ED
:1031700008BF0121441E00F1FF0504F8011FAC4205
:10318000FBD10AB9581EF0BDC1F10104E7B2875462
:1031900019782D2903F1010605D05D290ED079B1EA
:1031A0000A463346F2E75D785D2DF9D09542F7DBAC
:1031B00002330132AA428754FBDBE9E73046F0BD17
:1031C0001846F0BD10B50C46B1F90E1000F06AFCBF
:1031D0000028ABBF636DA3891B1823F48053ACBFD9
:1031E0006365A38110BD2DE9F0411D468B89DB0588
:1031F00007460C46164605D5B1F90E1000220223EB
:1032000000F076FBA389B4F90E1023F48053A38158
:10321000384632462B46BDE8F04100F01BBA10B5E7
:103220000C46B1F90E1000F063FB431CA38915BFD7
:10323000606523F4805343F48053A38118BFA381B6
:1032400010BDB1F90E1000F083BA00002DE9F0476F
:10325000404CD4F800900F463D4615F801EB09EBC1
:103260000E04667806F0080404F0FF060CB12F4641
:10327000F2E774462D2C03D1BD1C7C78012603E0B7
:103280002B2C04BF7C78BD1C13B1102B0AD15AE043
:10329000302C56D12C7804F0DF04582C4CD16C78AB
:1032A00010230235002E14BF4FF000486FF0004885
:1032B0000027B8FBF3FABE4603FB1A8809EB040C9F
:1032C0009CF801C01CF0040F01D0303C0BE01CF056
:1032D000030C1BD0BCF1010F0CBF4FF0370C4FF0AB
:1032E000570CCCEB04049C4210DAB7F1FF3F0AD034
:1032F000D64506D801D1444503DC03FB0E4E012719
:1033000001E04FF0FF3715F8014BD7E77C1C7346FF
:103310000AD1002E4FF0220114BF4FF000436FF08E
:10332000004301602AB911E00EB1CEF100036AB189
:1033300007B1691E116009E03024002BB2D10823C7
:10334000B0E70A23AEE7302CACD1A3E71846BDE8BE
:10335000F08700BF7C0000202DE9F0473B4CD4F8FB
:1033600000900E46354615F801EB09EB0E04677820
:1033700007F0080404F0FF070CB12E46F2E774468C
:103380002D2C03D1B51C7478012703E02B2C04BF2E
:103390007478B51C13B1102B0AD151E0302C4DD1EB
:1033A0002C7804F0DF04582C43D16C7810230235BC
:1033B0004FF0FF380026B8FBF3F803FB08FA6FEA7A
:1033C0000A0AB64609EB040C9CF801C01CF0040F75
:1033D00001D0303C0BE01CF0030C1BD0BCF1010F02
:1033E0000CBF4FF0370C4FF0570CCCEB04049C4251
:1033F00010DAB6F1FF3F0AD0C64506D801D15445D0
:1034000003DC03FB0E4E012601E04FF0FF3615F8FA
:10341000014BD7E7741C734603D122230360334664
:1034200002E00FB1CEF100036AB106B1691E11606E
:1034300009E03024002BBBD10823B9E70A23B7E702
:10344000302CB5D1ACE71846BDE8F0877C000020F1
:103450002DE9F0410C46496B04F1440399421CD11B
:103460004FF48061FEF7F8FF18B94FF0FF30BDE868
:10347000F0814FF48063A36394F84630606380F872
:10348000FF3394F8453080F8FE3394F8443080F8E8
:10349000FD3300F2FD30206012E0A66B77003A4663
:1034A00000F0DAFA05460028DFD000EB06084046B7
:1034B00029463246FEF7A8FEC4F800806563A7637C
:1034C0000020BDE8F08100004B1C70B505460E469B
:1034D000144602D14FF0FF3070BD18B183690BB9AB
:1034E000FEF716FF2E4B9C4201D16C6808E02D4B75
:1034F0009C4201D1AC6803E02B4B9C4208BFEC68B6
:10350000A38923F020039BB2A3819BB2590713D454
:10351000DA06DFD51B070BD52846214600F0ACF9AB
:103520000028D7D1A389A06023F00803A381A0615C
:10353000A38943F00403A381636B6268F6B28BB185
:10354000A36B9A4207DA23685A1E226003F8016CC3
:103550006368013320E028462146FFF779FF002801
:10356000F1D0B7E72169236851B18B4208D913F82C
:10357000010CB04204D1013B01322360626070BD96
:10358000E36304F1440363630323A36323462264D8
:1035900003F8466F236001236360304670BD00BFAF
:1035A00080410000A0410000C041000070B50D4600
:1035B0001446064618B183690BB9FEF7A9FE224BE3
:1035C0009C4201D1746808E0204B9C4201D1B46850
:1035D00003E01F4B9C4208BFF468A369A360A38962
:1035E0001A0709D523693BB123682069181A636952
:1035F0009842EDB20FDB08E03046214600F03CF87F
:103600000028F1D04FF0FF3070BD3046214600F069
:1036100033F90028F6D1A368013BA36023685A1C44
:1036200022601D7063690130984204D0A389DB07D2
:1036300007D50A2D05D13046214600F01DF9002896
:10364000E0D1284670BD00BF80410000A0410000CD
:10365000C041000038B5074C0546002020600846F0
:1036600011461A46FDF7A4FA431C02D1236803B1A0
:103670002B6038BD30090020314B70B51D680646FF
:103680000C4625B1AB6913B92846FEF741FE2D4B18
:103690009C4201D16C6808E02B4B9C4201D1AC6884
:1036A00003E02A4B9C4208BFEC68A3899AB2110739
:1036B0001DD4D50602D40922326038E0500712D555
:1036C000616B41B104F14403994202D0304600F0ED
:1036D0007FF900236363A38923F02403A3810023DC
:1036E000636023692360A38943F00803A3812369EE
:1036F0004BB9A38903F42073B3F5007F03D03046A0
:10370000214600F007F9A38913F0010205D0002239
:10371000A26062695242A26103E0990758BF6269E0
:10372000A26022694AB903F0800080B230B143F050
:103730004003A3814FF0FF3070BD002070BD00BF7B
:103740007800002080410000A0410000C04100003E
:1037500038B5064C002305460846236000F0E0F922
:10376000431C02D1236803B12B6038BD300900200F
:103770008A892DE9F041054610070C4657D44B685D
:10378000002B02DC0B6C002B18DDE66AB6B102F4EC
:103790008052002392B22F682B600AB1626D10E054
:1037A000216A28460123B047411C024609D12B68F3
:1037B0003BB11D2B01D0162B47D12F600020BDE857
:1037C000F081A3895B0705D56368D21A636B0BB1DF
:1037D000236CD21AE66A216A00232846B047461CA9
:1037E000A38905D12A681AB11D2A01D0162A19D138
:1037F00000226260D9042269226004D5421C01D1F2
:103800002B6803B96065616B2F600029D6D004F185
:103810004403994202D0284600F0DAF800206063A1
:10382000BDE8F08143F04003A381BDE8F0810F695A
:10383000002FC3D093070E6808BF4B690F6018BFF5
:103840000023C7EB06088B6012E0A38943F0400316
:10385000A3814FF0FF30BDE8F0812846216AA66AB7
:103860003A464346B0470028EFDD0744C0EB08085E
:10387000B8F1000FF1DCA1E738B50B6905460C463D
:10388000DBB118B183690BB9FEF742FD0C4B9C42CA
:1038900001D16C6808E00B4B9C4201D1AC6803E09D
:1038A000094B9C4208BFEC68B4F90C302BB1284698
:1038B0002146BDE83840FFF75BBF002038BD00BFA0
:1038C00080410000A0410000C0410000014620B935
:1038D000044B05491868FEF7A1BD044B1868FFF7B3
:1038E000CBBF00BF7C410000793800007800002089
:1038F00038B5074C054600202060084611461A4698
:1039000000F026F9431C02D1236803B12B6038BDB7
:1039100030090020F0B58B899D0791B006460C4612
:1039200026D4B1F90E10002909DAA38913F0800F0B
:103930004FF0000514BF40274FF480670DE001AA47
:1039400000F0C2F80028F0DB029D05F47045A5F5F3
:1039500000514D424D414FF4806730463946FEF7E5
:103960007BFD60B9A3899A051DD443F00203A381AE
:1039700004F14703236023610123636113E00B4BD0
:10398000B362A389206043F08003A3812061676153
:103990004DB13046B4F90E1000F0A8F818B1A38963
:1039A00043F00103A38111B0F0BD00BF91220000DC
:1039B00010B5C9B202449042034606D01C788C422E
:1039C00000F10100F7D1184610BD002010BD000025
:1039D00030B500293DD051F8042C0B1F1D49002A99
:1039E000B8BF9B180A680C4612B95A600B6030BD0C
:1039F00093420DD219685818904201BF5A58521874
:103A00001A6042685A60236030BD994203D80A4662
:103A100051680029F9D1146815199D420AD11B6813
:103A20002344D0188842136013D1086803441360FC
:103A30004B680DE002D90C23036030BD1C681819D7
:103A4000884204BF08684968596004BF00191860BB
:103A5000536030BD28090020F8B5074615460E46CC
:103A600021B91146BDE8F840FEF7F6BC1AB9FFF7D8
:103A7000AFFF2846F8BD00F049F8A8420ED23846FC
:103A80002946FEF7E9FC044650B131462A46FEF7C6
:103A9000BBFB38463146FFF79BFF01E03046F8BDDF
:103AA0002046F8BD38B5074C054600202060084682
:103AB00011461A46FDF78AF8431C02D1236803B168
:103AC0002B6038BD3009002038B5074C002305466F
:103AD00008461146236000F02BF8431C02D12368EE
:103AE00003B12B6038BD00BF3009002038B5064C4B
:103AF000002305460846236000F022F8431C02D14B
:103B0000236803B12B6038BD3009002051F8040C44
:103B10000028BEBF091851F8043CC018043870478B
:103B2000024B58221A604FF0FF30704730090020D6
:103B3000024B58221A604FF0FF30704730090020C6
:103B4000024B58221A600020704700BF3009002045
:103B5000024B58221A604FF0FF30704730090020A6
:103B6000044A05491368002B08BF0B46184410602F
:103B7000184670472C09002038090020FEE700BFD6
:103B8000F8B500BFF8BC08BC9E467047F8B500BF4A
:103B9000F8BC08BC9E46704761707000EC040020C1
:103BA000F4040020FC040020FC04002018000000A5
:103BB000466174616C206572726F72005379737420
:103BC000656D20726573657400000000FFFFFFFFE4
:103BD000FFFFFFFFFFFFFFFFFFFFFFFF00000000F1
:103BE000000000000000D6010701000062616C6C5B
:103BF0006F63000075617274000000000500000032
:103C000006000000FFFFFFFFFFFFFFFF00000000B6
:103C100000E0D701456E74657220646174612072A2
:103C200061746520282730273D323530204B62698A
:103C3000742F732C202731273D31204D6269742F5A
:103C40007320616E64202732273D32204D626974F3
:103C50002F73293A0D0A00002563000025630D0A21
:103C600000000000456E746572206F757470757485
:103C700020706F77657220282730273D2B34206411
:103C8000426D2C202731273D302064426D2C2E2E92
:103C90002E2C2737273D2D33302064426D293A0DD5
:103CA0000A000000506172616D65746572733A0DAF
:103CB0000A0000004461746120726174652E2E2E2A
:103CC0002E2E2E2E2E2E2E2E3A20323530204B62C6
:103CD00069742F730D0A000044617461207261746D
:103CE000652E2E2E2E2E2E2E2E2E2E2E3A203120CA
:103CF0004D6269742F730D0A000000004461746105
:103D000020726174652E2E2E2E2E2E2E2E2E2E2EED
:103D10003A2032204D6269742F730D0A00000000B2
:103D2000545820506F7765722E2E2E2E2E2E2E2E4A
:103D30002E2E2E2E3A202B342064426D0D0A0000C8
:103D4000545820506F7765722E2E2E2E2E2E2E2E2A
:103D50002E2E2E2E3A20302064426D0D0A000000D7
:103D6000545820506F7765722E2E2E2E2E2E2E2E0A
:103D70002E2E2E2E3A202D342064426D0D0A000086
:103D8000545820506F7765722E2E2E2E2E2E2E2EEA
:103D90002E2E2E2E3A202D382064426D0D0A000062
:103DA000545820506F7765722E2E2E2E2E2E2E2ECA
:103DB0002E2E2E2E3A202D31322064426D0D0A0017
:103DC000545820506F7765722E2E2E2E2E2E2E2EAA
:103DD0002E2E2E2E3A202D31362064426D0D0A00F3
:103DE000545820506F7765722E2E2E2E2E2E2E2E8A
:103DF0002E2E2E2E3A202D32302064426D0D0A00D8
:103E0000545820506F7765722E2E2E2E2E2E2E2E69
:103E10002E2E2E2E3A202D33302064426D0D0A00B6
:103E200028537461727429204368616E6E656C2E2C
:103E30002E2E2E2E3A2025640D0A0000456E642099
:103E40004368616E6E656C2E2E2E2E2E2E2E2E2E1B
:103E50003A2025640D0A000054696D65206F6E20BC
:103E600065616368206368616E6E656C3A202564E5
:103E70000D0A0000206D730D0A0000005246205408
:103E80006573740D0A000000456E746572207374CA
:103E9000617274206368616E6E656C202874776F40
:103EA00020646563696D616C206469676974732C53
:103EB00020303020746F203830293A0D0A0000007D
:103EC0002564000025640D0A000000004368616E4F
:103ED0006E656C206D757374206265206265747701
:103EE00065656E203020616E642038300D0A000058
:103EF000456E74657220656E64206368616E6E65E0
:103F00006C202874776F20646563696D616C206430
:103F100069676974732C20303020746F2038302921
:103F20003A0D0A00545820636172726965720D0A75
:103F300000000000456E7465722064656C61792034
:103F4000696E206D73202874776F20646563696DD6
:103F5000616C206469676974732C20303120746F40
:103F6000203939293A0D0A0044656C6179206D7554
:103F70007374206265206265747765656E203120F8
:103F8000616E642039390D0A0000000043616E63E0
:103F9000656C6C696E6720746573740D0A000000AF
:103FA0005458206D6F64756C617465642063617230
:103FB000726965720D0A000052582053776565706A
:103FC0000D0A000054582053776565700D0A0000F3
:103FD000525820636F6E7374616E742063617272E5
:103FE0006965720D0A00000055736167653A0D0A34
:103FF00000000000613A20456E74657220737461A0
:104000007274206368616E6E656C20666F722073D7
:10401000776565702F6368616E6E656C20666F7280
:1040200020636F6E7374616E742063617272696570
:10403000720D0A00623A20456E74657220656E64E6
:10404000206368616E6E656C20666F7220737765A1
:1040500065700D0A00000000633A205374617274A9
:1040600020545820636172726965720D0A00000065
:10407000643A20456E7465722074696D65206F6EB8
:104080002065616368206368616E6E656C2028310D
:104090006D732D39396D73290D0A0000653A20437F
:1040A000616E63656C2073776565702F63617272F2
:1040B0006965720D0A0000006D3A20456E746572E4
:1040C000206461746120726174650D0A0000000053
:1040D0006F3A205374617274206D6F64756C6174F3
:1040E000656420545820636172726965720D0A001C
:1040F000703A20456E746572206F75747075742007
:10410000706F7765720D0A00733A205072696E7491
:104110002063757272656E742064656C61792C2001
:104120006368616E6E656C7320616E6420736F20CE
:104130006F6E0D0A00000000723A205374617274B1
:104140002052582073776565700D0A00743A205329
:10415000746172742054582073776565700D0A007D
:10416000783A2053746172742052582063617272DD
:104170006965720D0A00000043000000180000206D
:10418000000000000000000000000000000000002F
:10419000000000000000000000000000000000001F
:1041A000000000000000000000000000000000000F
:1041B00000000000000000000000000000000000FF
:1041C00000000000000000000000000000000000EF
:1041D00000000000000000000000000000000000DF
:1041E000232D302B2000686C4C00656667454647E0
:1041F0000030313233343536373839414243444563
:1042000046003031323334353637383961626364D1
:10421000656600003242000035420000384200006E
:10422000412D46612D6638393031323334353637D9
:104230005D002B2D00303000785800002020202019
:104240002020202020282828282820202020202046
:104250002020202020202020202020208810101026
:10426000101010101010101010101010040404047E
:1042700004040404040410101010101010414141F3
:10428000414141010101010101010101010101015E
:1042900001010101010101101010101010424242F1
:1042A000424242020202020202020202020202022E
:1042B0000202020202020210101010200000000090
:1042C00000000000000000000000000000000000EE
:1042D00000000000000000000000000000000000DE
:1042E00000000000000000000000000000000000CE
:1042F00000000000000000000000000000000000BE
:1043000000000000000000000000000000000000AD
:10431000000000000000000000000000000000009D
:10432000000000000000000000000000000000008D
:10433000000000000000000000000000000000007D
:10434000983B000000000300EC3B00000000000070
:08435000F43B00000000000036
:0843580004BFFF7F010000001B
:1043600000200040000000000A0000005000000093
:10437000010000000090D003000000008041000018
:10438000A0410000C041000000000000000000004B
:104390000000000000000000784100000000000064
:1043A000000000000000000000000000000000000D
:1043B00000000000000000000000000000000000FD
:1043C00000000000000000000000000000000000ED
:1043D0000000000000000000180000203B42000028
:0C43E000250200000102000000000000A7
:1043EC0000000000000000000000000000000000C1
:1043FC0000000000000000000000000000000000B1
:04440C0000000000AC
:0400000300001DD507
:00000001FF
